{
	"DonateCrypto.sol": {
		"DonateCrypto": {
			"abi": [
				{
					"inputs": [
						{
							"internalType": "string",
							"name": "title",
							"type": "string"
						},
						{
							"internalType": "string",
							"name": "description",
							"type": "string"
						},
						{
							"internalType": "string",
							"name": "videoUrl",
							"type": "string"
						},
						{
							"internalType": "string",
							"name": "imageUrl",
							"type": "string"
						}
					],
					"name": "addCampaign",
					"outputs": [],
					"stateMutability": "nonpayable",
					"type": "function"
				},
				{
					"inputs": [
						{
							"internalType": "uint256",
							"name": "",
							"type": "uint256"
						}
					],
					"name": "campaings",
					"outputs": [
						{
							"internalType": "address",
							"name": "author",
							"type": "address"
						},
						{
							"internalType": "string",
							"name": "title",
							"type": "string"
						},
						{
							"internalType": "string",
							"name": "description",
							"type": "string"
						},
						{
							"internalType": "string",
							"name": "videoUrl",
							"type": "string"
						},
						{
							"internalType": "string",
							"name": "imageUrl",
							"type": "string"
						},
						{
							"internalType": "uint256",
							"name": "balance",
							"type": "uint256"
						},
						{
							"internalType": "bool",
							"name": "active",
							"type": "bool"
						}
					],
					"stateMutability": "view",
					"type": "function"
				},
				{
					"inputs": [],
					"name": "fee",
					"outputs": [
						{
							"internalType": "uint256",
							"name": "",
							"type": "uint256"
						}
					],
					"stateMutability": "view",
					"type": "function"
				},
				{
					"inputs": [],
					"name": "nextId",
					"outputs": [
						{
							"internalType": "uint256",
							"name": "",
							"type": "uint256"
						}
					],
					"stateMutability": "view",
					"type": "function"
				}
			],
			"devdoc": {
				"kind": "dev",
				"methods": {},
				"version": 1
			},
			"evm": {
				"assembly": "    /* \"DonateCrypto.sol\":222:866  contract DonateCrypto {... */\n  mstore(0x40, 0x80)\n    /* \"DonateCrypto.sol\":272:275  100 */\n  0x64\n    /* \"DonateCrypto.sol\":251:275  uint256 public fee = 100 */\n  0x00\n  sstore\n    /* \"DonateCrypto.sol\":311:312  0 */\n  0x00\n    /* \"DonateCrypto.sol\":287:312  uint256 public nextId = 0 */\n  0x01\n  sstore\n    /* \"DonateCrypto.sol\":222:866  contract DonateCrypto {... */\n  callvalue\n  dup1\n  iszero\n  tag_1\n  jumpi\n  0x00\n  dup1\n  revert\ntag_1:\n  pop\n  dataSize(sub_0)\n  dup1\n  dataOffset(sub_0)\n  0x00\n  codecopy\n  0x00\n  return\nstop\n\nsub_0: assembly {\n        /* \"DonateCrypto.sol\":222:866  contract DonateCrypto {... */\n      mstore(0x40, 0x80)\n      callvalue\n      dup1\n      iszero\n      tag_1\n      jumpi\n      0x00\n      dup1\n      revert\n    tag_1:\n      pop\n      jumpi(tag_2, lt(calldatasize, 0x04))\n      shr(0xe0, calldataload(0x00))\n      dup1\n      0x61b8ce8c\n      eq\n      tag_3\n      jumpi\n      dup1\n      0xb2395a14\n      eq\n      tag_4\n      jumpi\n      dup1\n      0xddca3f43\n      eq\n      tag_5\n      jumpi\n      dup1\n      0xec671486\n      eq\n      tag_6\n      jumpi\n    tag_2:\n      0x00\n      dup1\n      revert\n        /* \"DonateCrypto.sol\":287:312  uint256 public nextId = 0 */\n    tag_3:\n      tag_7\n      tag_8\n      jump\t// in\n    tag_7:\n      mload(0x40)\n      tag_9\n      swap2\n      swap1\n      tag_10\n      jump\t// in\n    tag_9:\n      mload(0x40)\n      dup1\n      swap2\n      sub\n      swap1\n      return\n        /* \"DonateCrypto.sol\":319:364  mapping(uint256 => Campaign) public campaings */\n    tag_4:\n      tag_11\n      0x04\n      dup1\n      calldatasize\n      sub\n      dup2\n      add\n      swap1\n      tag_12\n      swap2\n      swap1\n      tag_13\n      jump\t// in\n    tag_12:\n      tag_14\n      jump\t// in\n    tag_11:\n      mload(0x40)\n      tag_15\n      swap8\n      swap7\n      swap6\n      swap5\n      swap4\n      swap3\n      swap2\n      swap1\n      tag_16\n      jump\t// in\n    tag_15:\n      mload(0x40)\n      dup1\n      swap2\n      sub\n      swap1\n      return\n        /* \"DonateCrypto.sol\":251:275  uint256 public fee = 100 */\n    tag_5:\n      tag_17\n      tag_18\n      jump\t// in\n    tag_17:\n      mload(0x40)\n      tag_19\n      swap2\n      swap1\n      tag_10\n      jump\t// in\n    tag_19:\n      mload(0x40)\n      dup1\n      swap2\n      sub\n      swap1\n      return\n        /* \"DonateCrypto.sol\":388:864  function addCampaign(string calldata title, string calldata description, string calldata videoUrl, string calldata imageUrl) public {... */\n    tag_6:\n      tag_20\n      0x04\n      dup1\n      calldatasize\n      sub\n      dup2\n      add\n      swap1\n      tag_21\n      swap2\n      swap1\n      tag_22\n      jump\t// in\n    tag_21:\n      tag_23\n      jump\t// in\n    tag_20:\n      stop\n        /* \"DonateCrypto.sol\":287:312  uint256 public nextId = 0 */\n    tag_8:\n      sload(0x01)\n      dup2\n      jump\t// out\n        /* \"DonateCrypto.sol\":319:364  mapping(uint256 => Campaign) public campaings */\n    tag_14:\n      mstore(0x20, 0x02)\n      dup1\n      0x00\n      mstore\n      keccak256(0x00, 0x40)\n      0x00\n      swap2\n      pop\n      swap1\n      pop\n      dup1\n      0x00\n      add\n      0x00\n      swap1\n      sload\n      swap1\n      0x0100\n      exp\n      swap1\n      div\n      0xffffffffffffffffffffffffffffffffffffffff\n      and\n      swap1\n      dup1\n      0x01\n      add\n      dup1\n      sload\n      tag_24\n      swap1\n      tag_25\n      jump\t// in\n    tag_24:\n      dup1\n      0x1f\n      add\n      0x20\n      dup1\n      swap2\n      div\n      mul\n      0x20\n      add\n      mload(0x40)\n      swap1\n      dup2\n      add\n      0x40\n      mstore\n      dup1\n      swap3\n      swap2\n      swap1\n      dup2\n      dup2\n      mstore\n      0x20\n      add\n      dup3\n      dup1\n      sload\n      tag_26\n      swap1\n      tag_25\n      jump\t// in\n    tag_26:\n      dup1\n      iszero\n      tag_27\n      jumpi\n      dup1\n      0x1f\n      lt\n      tag_28\n      jumpi\n      0x0100\n      dup1\n      dup4\n      sload\n      div\n      mul\n      dup4\n      mstore\n      swap2\n      0x20\n      add\n      swap2\n      jump(tag_27)\n    tag_28:\n      dup3\n      add\n      swap2\n      swap1\n      0x00\n      mstore\n      keccak256(0x00, 0x20)\n      swap1\n    tag_29:\n      dup2\n      sload\n      dup2\n      mstore\n      swap1\n      0x01\n      add\n      swap1\n      0x20\n      add\n      dup1\n      dup4\n      gt\n      tag_29\n      jumpi\n      dup3\n      swap1\n      sub\n      0x1f\n      and\n      dup3\n      add\n      swap2\n    tag_27:\n      pop\n      pop\n      pop\n      pop\n      pop\n      swap1\n      dup1\n      0x02\n      add\n      dup1\n      sload\n      tag_30\n      swap1\n      tag_25\n      jump\t// in\n    tag_30:\n      dup1\n      0x1f\n      add\n      0x20\n      dup1\n      swap2\n      div\n      mul\n      0x20\n      add\n      mload(0x40)\n      swap1\n      dup2\n      add\n      0x40\n      mstore\n      dup1\n      swap3\n      swap2\n      swap1\n      dup2\n      dup2\n      mstore\n      0x20\n      add\n      dup3\n      dup1\n      sload\n      tag_31\n      swap1\n      tag_25\n      jump\t// in\n    tag_31:\n      dup1\n      iszero\n      tag_32\n      jumpi\n      dup1\n      0x1f\n      lt\n      tag_33\n      jumpi\n      0x0100\n      dup1\n      dup4\n      sload\n      div\n      mul\n      dup4\n      mstore\n      swap2\n      0x20\n      add\n      swap2\n      jump(tag_32)\n    tag_33:\n      dup3\n      add\n      swap2\n      swap1\n      0x00\n      mstore\n      keccak256(0x00, 0x20)\n      swap1\n    tag_34:\n      dup2\n      sload\n      dup2\n      mstore\n      swap1\n      0x01\n      add\n      swap1\n      0x20\n      add\n      dup1\n      dup4\n      gt\n      tag_34\n      jumpi\n      dup3\n      swap1\n      sub\n      0x1f\n      and\n      dup3\n      add\n      swap2\n    tag_32:\n      pop\n      pop\n      pop\n      pop\n      pop\n      swap1\n      dup1\n      0x03\n      add\n      dup1\n      sload\n      tag_35\n      swap1\n      tag_25\n      jump\t// in\n    tag_35:\n      dup1\n      0x1f\n      add\n      0x20\n      dup1\n      swap2\n      div\n      mul\n      0x20\n      add\n      mload(0x40)\n      swap1\n      dup2\n      add\n      0x40\n      mstore\n      dup1\n      swap3\n      swap2\n      swap1\n      dup2\n      dup2\n      mstore\n      0x20\n      add\n      dup3\n      dup1\n      sload\n      tag_36\n      swap1\n      tag_25\n      jump\t// in\n    tag_36:\n      dup1\n      iszero\n      tag_37\n      jumpi\n      dup1\n      0x1f\n      lt\n      tag_38\n      jumpi\n      0x0100\n      dup1\n      dup4\n      sload\n      div\n      mul\n      dup4\n      mstore\n      swap2\n      0x20\n      add\n      swap2\n      jump(tag_37)\n    tag_38:\n      dup3\n      add\n      swap2\n      swap1\n      0x00\n      mstore\n      keccak256(0x00, 0x20)\n      swap1\n    tag_39:\n      dup2\n      sload\n      dup2\n      mstore\n      swap1\n      0x01\n      add\n      swap1\n      0x20\n      add\n      dup1\n      dup4\n      gt\n      tag_39\n      jumpi\n      dup3\n      swap1\n      sub\n      0x1f\n      and\n      dup3\n      add\n      swap2\n    tag_37:\n      pop\n      pop\n      pop\n      pop\n      pop\n      swap1\n      dup1\n      0x04\n      add\n      dup1\n      sload\n      tag_40\n      swap1\n      tag_25\n      jump\t// in\n    tag_40:\n      dup1\n      0x1f\n      add\n      0x20\n      dup1\n      swap2\n      div\n      mul\n      0x20\n      add\n      mload(0x40)\n      swap1\n      dup2\n      add\n      0x40\n      mstore\n      dup1\n      swap3\n      swap2\n      swap1\n      dup2\n      dup2\n      mstore\n      0x20\n      add\n      dup3\n      dup1\n      sload\n      tag_41\n      swap1\n      tag_25\n      jump\t// in\n    tag_41:\n      dup1\n      iszero\n      tag_42\n      jumpi\n      dup1\n      0x1f\n      lt\n      tag_43\n      jumpi\n      0x0100\n      dup1\n      dup4\n      sload\n      div\n      mul\n      dup4\n      mstore\n      swap2\n      0x20\n      add\n      swap2\n      jump(tag_42)\n    tag_43:\n      dup3\n      add\n      swap2\n      swap1\n      0x00\n      mstore\n      keccak256(0x00, 0x20)\n      swap1\n    tag_44:\n      dup2\n      sload\n      dup2\n      mstore\n      swap1\n      0x01\n      add\n      swap1\n      0x20\n      add\n      dup1\n      dup4\n      gt\n      tag_44\n      jumpi\n      dup3\n      swap1\n      sub\n      0x1f\n      and\n      dup3\n      add\n      swap2\n    tag_42:\n      pop\n      pop\n      pop\n      pop\n      pop\n      swap1\n      dup1\n      0x05\n      add\n      sload\n      swap1\n      dup1\n      0x06\n      add\n      0x00\n      swap1\n      sload\n      swap1\n      0x0100\n      exp\n      swap1\n      div\n      0xff\n      and\n      swap1\n      pop\n      dup8\n      jump\t// out\n        /* \"DonateCrypto.sol\":251:275  uint256 public fee = 100 */\n    tag_18:\n      sload(0x00)\n      dup2\n      jump\t// out\n        /* \"DonateCrypto.sol\":388:864  function addCampaign(string calldata title, string calldata description, string calldata videoUrl, string calldata imageUrl) public {... */\n    tag_23:\n        /* \"DonateCrypto.sol\":530:557  Campaign memory newCampaign */\n      tag_46\n      tag_47\n      jump\t// in\n    tag_46:\n        /* \"DonateCrypto.sol\":587:592  title */\n      dup9\n      dup9\n        /* \"DonateCrypto.sol\":567:592  newCampaign.title = title */\n      dup1\n      dup1\n      0x1f\n      add\n      0x20\n      dup1\n      swap2\n      div\n      mul\n      0x20\n      add\n      mload(0x40)\n      swap1\n      dup2\n      add\n      0x40\n      mstore\n      dup1\n      swap4\n      swap3\n      swap2\n      swap1\n      dup2\n      dup2\n      mstore\n      0x20\n      add\n      dup4\n      dup4\n      dup1\n      dup3\n      dup5\n      calldatacopy\n      0x00\n      dup2\n      dup5\n      add\n      mstore\n      not(0x1f)\n      0x1f\n      dup3\n      add\n      and\n      swap1\n      pop\n      dup1\n      dup4\n      add\n      swap3\n      pop\n      pop\n      pop\n      pop\n      pop\n      pop\n      pop\n        /* \"DonateCrypto.sol\":567:578  newCampaign */\n      dup2\n        /* \"DonateCrypto.sol\":567:584  newCampaign.title */\n      0x20\n      add\n        /* \"DonateCrypto.sol\":567:592  newCampaign.title = title */\n      dup2\n      swap1\n      mstore\n      pop\n        /* \"DonateCrypto.sol\":628:639  description */\n      dup7\n      dup7\n        /* \"DonateCrypto.sol\":602:639  newCampaign.description = description */\n      dup1\n      dup1\n      0x1f\n      add\n      0x20\n      dup1\n      swap2\n      div\n      mul\n      0x20\n      add\n      mload(0x40)\n      swap1\n      dup2\n      add\n      0x40\n      mstore\n      dup1\n      swap4\n      swap3\n      swap2\n      swap1\n      dup2\n      dup2\n      mstore\n      0x20\n      add\n      dup4\n      dup4\n      dup1\n      dup3\n      dup5\n      calldatacopy\n      0x00\n      dup2\n      dup5\n      add\n      mstore\n      not(0x1f)\n      0x1f\n      dup3\n      add\n      and\n      swap1\n      pop\n      dup1\n      dup4\n      add\n      swap3\n      pop\n      pop\n      pop\n      pop\n      pop\n      pop\n      pop\n        /* \"DonateCrypto.sol\":602:613  newCampaign */\n      dup2\n        /* \"DonateCrypto.sol\":602:625  newCampaign.description */\n      0x40\n      add\n        /* \"DonateCrypto.sol\":602:639  newCampaign.description = description */\n      dup2\n      swap1\n      mstore\n      pop\n        /* \"DonateCrypto.sol\":672:680  videoUrl */\n      dup5\n      dup5\n        /* \"DonateCrypto.sol\":649:680  newCampaign.videoUrl = videoUrl */\n      dup1\n      dup1\n      0x1f\n      add\n      0x20\n      dup1\n      swap2\n      div\n      mul\n      0x20\n      add\n      mload(0x40)\n      swap1\n      dup2\n      add\n      0x40\n      mstore\n      dup1\n      swap4\n      swap3\n      swap2\n      swap1\n      dup2\n      dup2\n      mstore\n      0x20\n      add\n      dup4\n      dup4\n      dup1\n      dup3\n      dup5\n      calldatacopy\n      0x00\n      dup2\n      dup5\n      add\n      mstore\n      not(0x1f)\n      0x1f\n      dup3\n      add\n      and\n      swap1\n      pop\n      dup1\n      dup4\n      add\n      swap3\n      pop\n      pop\n      pop\n      pop\n      pop\n      pop\n      pop\n        /* \"DonateCrypto.sol\":649:660  newCampaign */\n      dup2\n        /* \"DonateCrypto.sol\":649:669  newCampaign.videoUrl */\n      0x60\n      add\n        /* \"DonateCrypto.sol\":649:680  newCampaign.videoUrl = videoUrl */\n      dup2\n      swap1\n      mstore\n      pop\n        /* \"DonateCrypto.sol\":713:721  imageUrl */\n      dup3\n      dup3\n        /* \"DonateCrypto.sol\":690:721  newCampaign.imageUrl = imageUrl */\n      dup1\n      dup1\n      0x1f\n      add\n      0x20\n      dup1\n      swap2\n      div\n      mul\n      0x20\n      add\n      mload(0x40)\n      swap1\n      dup2\n      add\n      0x40\n      mstore\n      dup1\n      swap4\n      swap3\n      swap2\n      swap1\n      dup2\n      dup2\n      mstore\n      0x20\n      add\n      dup4\n      dup4\n      dup1\n      dup3\n      dup5\n      calldatacopy\n      0x00\n      dup2\n      dup5\n      add\n      mstore\n      not(0x1f)\n      0x1f\n      dup3\n      add\n      and\n      swap1\n      pop\n      dup1\n      dup4\n      add\n      swap3\n      pop\n      pop\n      pop\n      pop\n      pop\n      pop\n      pop\n        /* \"DonateCrypto.sol\":690:701  newCampaign */\n      dup2\n        /* \"DonateCrypto.sol\":690:710  newCampaign.imageUrl */\n      0x80\n      add\n        /* \"DonateCrypto.sol\":690:721  newCampaign.imageUrl = imageUrl */\n      dup2\n      swap1\n      mstore\n      pop\n        /* \"DonateCrypto.sol\":752:756  true */\n      0x01\n        /* \"DonateCrypto.sol\":731:742  newCampaign */\n      dup2\n        /* \"DonateCrypto.sol\":731:749  newCampaign.active */\n      0xc0\n      add\n        /* \"DonateCrypto.sol\":731:756  newCampaign.active = true */\n      swap1\n      iszero\n      iszero\n      swap1\n      dup2\n      iszero\n      iszero\n      dup2\n      mstore\n      pop\n      pop\n        /* \"DonateCrypto.sol\":787:797  msg.sender */\n      caller\n        /* \"DonateCrypto.sol\":766:777  newCampaign */\n      dup2\n        /* \"DonateCrypto.sol\":766:784  newCampaign.author */\n      0x00\n      add\n        /* \"DonateCrypto.sol\":766:797  newCampaign.author = msg.sender */\n      swap1\n      0xffffffffffffffffffffffffffffffffffffffff\n      and\n      swap1\n      dup2\n      0xffffffffffffffffffffffffffffffffffffffff\n      and\n      dup2\n      mstore\n      pop\n      pop\n        /* \"DonateCrypto.sol\":808:814  nextId */\n      0x01\n      0x00\n        /* \"DonateCrypto.sol\":808:816  nextId++ */\n      dup2\n      sload\n      dup1\n      swap3\n      swap2\n      swap1\n      tag_48\n      swap1\n      tag_49\n      jump\t// in\n    tag_48:\n      swap2\n      swap1\n      pop\n      sstore\n      pop\n        /* \"DonateCrypto.sol\":846:857  newCampaign */\n      dup1\n        /* \"DonateCrypto.sol\":826:835  campaings */\n      0x02\n        /* \"DonateCrypto.sol\":826:843  campaings[nextId] */\n      0x00\n        /* \"DonateCrypto.sol\":836:842  nextId */\n      sload(0x01)\n        /* \"DonateCrypto.sol\":826:843  campaings[nextId] */\n      dup2\n      mstore\n      0x20\n      add\n      swap1\n      dup2\n      mstore\n      0x20\n      add\n      0x00\n      keccak256\n        /* \"DonateCrypto.sol\":826:857  campaings[nextId] = newCampaign */\n      0x00\n      dup3\n      add\n      mload\n      dup2\n      0x00\n      add\n      exp(0x0100, 0x00)\n      dup2\n      sload\n      dup2\n      0xffffffffffffffffffffffffffffffffffffffff\n      mul\n      not\n      and\n      swap1\n      dup4\n      0xffffffffffffffffffffffffffffffffffffffff\n      and\n      mul\n      or\n      swap1\n      sstore\n      pop\n      0x20\n      dup3\n      add\n      mload\n      dup2\n      0x01\n      add\n      swap1\n      dup2\n      tag_50\n      swap2\n      swap1\n      tag_51\n      jump\t// in\n    tag_50:\n      pop\n      0x40\n      dup3\n      add\n      mload\n      dup2\n      0x02\n      add\n      swap1\n      dup2\n      tag_52\n      swap2\n      swap1\n      tag_51\n      jump\t// in\n    tag_52:\n      pop\n      0x60\n      dup3\n      add\n      mload\n      dup2\n      0x03\n      add\n      swap1\n      dup2\n      tag_53\n      swap2\n      swap1\n      tag_51\n      jump\t// in\n    tag_53:\n      pop\n      0x80\n      dup3\n      add\n      mload\n      dup2\n      0x04\n      add\n      swap1\n      dup2\n      tag_54\n      swap2\n      swap1\n      tag_51\n      jump\t// in\n    tag_54:\n      pop\n      0xa0\n      dup3\n      add\n      mload\n      dup2\n      0x05\n      add\n      sstore\n      0xc0\n      dup3\n      add\n      mload\n      dup2\n      0x06\n      add\n      exp(0x0100, 0x00)\n      dup2\n      sload\n      dup2\n      0xff\n      mul\n      not\n      and\n      swap1\n      dup4\n      iszero\n      iszero\n      mul\n      or\n      swap1\n      sstore\n      pop\n      swap1\n      pop\n      pop\n        /* \"DonateCrypto.sol\":520:864  {... */\n      pop\n        /* \"DonateCrypto.sol\":388:864  function addCampaign(string calldata title, string calldata description, string calldata videoUrl, string calldata imageUrl) public {... */\n      pop\n      pop\n      pop\n      pop\n      pop\n      pop\n      pop\n      pop\n      jump\t// out\n    tag_47:\n      mload(0x40)\n      dup1\n      0xe0\n      add\n      0x40\n      mstore\n      dup1\n      and(0xffffffffffffffffffffffffffffffffffffffff, 0x00)\n      dup2\n      mstore\n      0x20\n      add\n      0x60\n      dup2\n      mstore\n      0x20\n      add\n      0x60\n      dup2\n      mstore\n      0x20\n      add\n      0x60\n      dup2\n      mstore\n      0x20\n      add\n      0x60\n      dup2\n      mstore\n      0x20\n      add\n      0x00\n      dup2\n      mstore\n      0x20\n      add\n      iszero(iszero(0x00))\n      dup2\n      mstore\n      pop\n      swap1\n      jump\t// out\n        /* \"#utility.yul\":7:84   */\n    tag_55:\n        /* \"#utility.yul\":44:51   */\n      0x00\n        /* \"#utility.yul\":73:78   */\n      dup2\n        /* \"#utility.yul\":62:78   */\n      swap1\n      pop\n        /* \"#utility.yul\":7:84   */\n      swap2\n      swap1\n      pop\n      jump\t// out\n        /* \"#utility.yul\":90:208   */\n    tag_56:\n        /* \"#utility.yul\":177:201   */\n      tag_97\n        /* \"#utility.yul\":195:200   */\n      dup2\n        /* \"#utility.yul\":177:201   */\n      tag_55\n      jump\t// in\n    tag_97:\n        /* \"#utility.yul\":172:175   */\n      dup3\n        /* \"#utility.yul\":165:202   */\n      mstore\n        /* \"#utility.yul\":90:208   */\n      pop\n      pop\n      jump\t// out\n        /* \"#utility.yul\":214:436   */\n    tag_10:\n        /* \"#utility.yul\":307:311   */\n      0x00\n        /* \"#utility.yul\":345:347   */\n      0x20\n        /* \"#utility.yul\":334:343   */\n      dup3\n        /* \"#utility.yul\":330:348   */\n      add\n        /* \"#utility.yul\":322:348   */\n      swap1\n      pop\n        /* \"#utility.yul\":358:429   */\n      tag_99\n        /* \"#utility.yul\":426:427   */\n      0x00\n        /* \"#utility.yul\":415:424   */\n      dup4\n        /* \"#utility.yul\":411:428   */\n      add\n        /* \"#utility.yul\":402:408   */\n      dup5\n        /* \"#utility.yul\":358:429   */\n      tag_56\n      jump\t// in\n    tag_99:\n        /* \"#utility.yul\":214:436   */\n      swap3\n      swap2\n      pop\n      pop\n      jump\t// out\n        /* \"#utility.yul\":523:640   */\n    tag_58:\n        /* \"#utility.yul\":632:633   */\n      0x00\n        /* \"#utility.yul\":629:630   */\n      dup1\n        /* \"#utility.yul\":622:634   */\n      revert\n        /* \"#utility.yul\":646:763   */\n    tag_59:\n        /* \"#utility.yul\":755:756   */\n      0x00\n        /* \"#utility.yul\":752:753   */\n      dup1\n        /* \"#utility.yul\":745:757   */\n      revert\n        /* \"#utility.yul\":769:891   */\n    tag_60:\n        /* \"#utility.yul\":842:866   */\n      tag_104\n        /* \"#utility.yul\":860:865   */\n      dup2\n        /* \"#utility.yul\":842:866   */\n      tag_55\n      jump\t// in\n    tag_104:\n        /* \"#utility.yul\":835:840   */\n      dup2\n        /* \"#utility.yul\":832:867   */\n      eq\n        /* \"#utility.yul\":822:885   */\n      tag_105\n      jumpi\n        /* \"#utility.yul\":881:882   */\n      0x00\n        /* \"#utility.yul\":878:879   */\n      dup1\n        /* \"#utility.yul\":871:883   */\n      revert\n        /* \"#utility.yul\":822:885   */\n    tag_105:\n        /* \"#utility.yul\":769:891   */\n      pop\n      jump\t// out\n        /* \"#utility.yul\":897:1036   */\n    tag_61:\n        /* \"#utility.yul\":943:948   */\n      0x00\n        /* \"#utility.yul\":981:987   */\n      dup2\n        /* \"#utility.yul\":968:988   */\n      calldataload\n        /* \"#utility.yul\":959:988   */\n      swap1\n      pop\n        /* \"#utility.yul\":997:1030   */\n      tag_107\n        /* \"#utility.yul\":1024:1029   */\n      dup2\n        /* \"#utility.yul\":997:1030   */\n      tag_60\n      jump\t// in\n    tag_107:\n        /* \"#utility.yul\":897:1036   */\n      swap3\n      swap2\n      pop\n      pop\n      jump\t// out\n        /* \"#utility.yul\":1042:1371   */\n    tag_13:\n        /* \"#utility.yul\":1101:1107   */\n      0x00\n        /* \"#utility.yul\":1150:1152   */\n      0x20\n        /* \"#utility.yul\":1138:1147   */\n      dup3\n        /* \"#utility.yul\":1129:1136   */\n      dup5\n        /* \"#utility.yul\":1125:1148   */\n      sub\n        /* \"#utility.yul\":1121:1153   */\n      slt\n        /* \"#utility.yul\":1118:1237   */\n      iszero\n      tag_109\n      jumpi\n        /* \"#utility.yul\":1156:1235   */\n      tag_110\n      tag_58\n      jump\t// in\n    tag_110:\n        /* \"#utility.yul\":1118:1237   */\n    tag_109:\n        /* \"#utility.yul\":1276:1277   */\n      0x00\n        /* \"#utility.yul\":1301:1354   */\n      tag_111\n        /* \"#utility.yul\":1346:1353   */\n      dup5\n        /* \"#utility.yul\":1337:1343   */\n      dup3\n        /* \"#utility.yul\":1326:1335   */\n      dup6\n        /* \"#utility.yul\":1322:1344   */\n      add\n        /* \"#utility.yul\":1301:1354   */\n      tag_61\n      jump\t// in\n    tag_111:\n        /* \"#utility.yul\":1291:1354   */\n      swap2\n      pop\n        /* \"#utility.yul\":1247:1364   */\n      pop\n        /* \"#utility.yul\":1042:1371   */\n      swap3\n      swap2\n      pop\n      pop\n      jump\t// out\n        /* \"#utility.yul\":1377:1503   */\n    tag_62:\n        /* \"#utility.yul\":1414:1421   */\n      0x00\n        /* \"#utility.yul\":1454:1496   */\n      0xffffffffffffffffffffffffffffffffffffffff\n        /* \"#utility.yul\":1447:1452   */\n      dup3\n        /* \"#utility.yul\":1443:1497   */\n      and\n        /* \"#utility.yul\":1432:1497   */\n      swap1\n      pop\n        /* \"#utility.yul\":1377:1503   */\n      swap2\n      swap1\n      pop\n      jump\t// out\n        /* \"#utility.yul\":1509:1605   */\n    tag_63:\n        /* \"#utility.yul\":1546:1553   */\n      0x00\n        /* \"#utility.yul\":1575:1599   */\n      tag_114\n        /* \"#utility.yul\":1593:1598   */\n      dup3\n        /* \"#utility.yul\":1575:1599   */\n      tag_62\n      jump\t// in\n    tag_114:\n        /* \"#utility.yul\":1564:1599   */\n      swap1\n      pop\n        /* \"#utility.yul\":1509:1605   */\n      swap2\n      swap1\n      pop\n      jump\t// out\n        /* \"#utility.yul\":1611:1729   */\n    tag_64:\n        /* \"#utility.yul\":1698:1722   */\n      tag_116\n        /* \"#utility.yul\":1716:1721   */\n      dup2\n        /* \"#utility.yul\":1698:1722   */\n      tag_63\n      jump\t// in\n    tag_116:\n        /* \"#utility.yul\":1693:1696   */\n      dup3\n        /* \"#utility.yul\":1686:1723   */\n      mstore\n        /* \"#utility.yul\":1611:1729   */\n      pop\n      pop\n      jump\t// out\n        /* \"#utility.yul\":1735:1834   */\n    tag_65:\n        /* \"#utility.yul\":1787:1793   */\n      0x00\n        /* \"#utility.yul\":1821:1826   */\n      dup2\n        /* \"#utility.yul\":1815:1827   */\n      mload\n        /* \"#utility.yul\":1805:1827   */\n      swap1\n      pop\n        /* \"#utility.yul\":1735:1834   */\n      swap2\n      swap1\n      pop\n      jump\t// out\n        /* \"#utility.yul\":1840:2009   */\n    tag_66:\n        /* \"#utility.yul\":1924:1935   */\n      0x00\n        /* \"#utility.yul\":1958:1964   */\n      dup3\n        /* \"#utility.yul\":1953:1956   */\n      dup3\n        /* \"#utility.yul\":1946:1965   */\n      mstore\n        /* \"#utility.yul\":1998:2002   */\n      0x20\n        /* \"#utility.yul\":1993:1996   */\n      dup3\n        /* \"#utility.yul\":1989:2003   */\n      add\n        /* \"#utility.yul\":1974:2003   */\n      swap1\n      pop\n        /* \"#utility.yul\":1840:2009   */\n      swap3\n      swap2\n      pop\n      pop\n      jump\t// out\n        /* \"#utility.yul\":2015:2261   */\n    tag_67:\n        /* \"#utility.yul\":2096:2097   */\n      0x00\n        /* \"#utility.yul\":2106:2219   */\n    tag_120:\n        /* \"#utility.yul\":2120:2126   */\n      dup4\n        /* \"#utility.yul\":2117:2118   */\n      dup2\n        /* \"#utility.yul\":2114:2127   */\n      lt\n        /* \"#utility.yul\":2106:2219   */\n      iszero\n      tag_122\n      jumpi\n        /* \"#utility.yul\":2205:2206   */\n      dup1\n        /* \"#utility.yul\":2200:2203   */\n      dup3\n        /* \"#utility.yul\":2196:2207   */\n      add\n        /* \"#utility.yul\":2190:2208   */\n      mload\n        /* \"#utility.yul\":2186:2187   */\n      dup2\n        /* \"#utility.yul\":2181:2184   */\n      dup5\n        /* \"#utility.yul\":2177:2188   */\n      add\n        /* \"#utility.yul\":2170:2209   */\n      mstore\n        /* \"#utility.yul\":2142:2144   */\n      0x20\n        /* \"#utility.yul\":2139:2140   */\n      dup2\n        /* \"#utility.yul\":2135:2145   */\n      add\n        /* \"#utility.yul\":2130:2145   */\n      swap1\n      pop\n        /* \"#utility.yul\":2106:2219   */\n      jump(tag_120)\n    tag_122:\n        /* \"#utility.yul\":2253:2254   */\n      0x00\n        /* \"#utility.yul\":2244:2250   */\n      dup5\n        /* \"#utility.yul\":2239:2242   */\n      dup5\n        /* \"#utility.yul\":2235:2251   */\n      add\n        /* \"#utility.yul\":2228:2255   */\n      mstore\n        /* \"#utility.yul\":2077:2261   */\n      pop\n        /* \"#utility.yul\":2015:2261   */\n      pop\n      pop\n      pop\n      jump\t// out\n        /* \"#utility.yul\":2267:2369   */\n    tag_68:\n        /* \"#utility.yul\":2308:2314   */\n      0x00\n        /* \"#utility.yul\":2359:2361   */\n      0x1f\n        /* \"#utility.yul\":2355:2362   */\n      not\n        /* \"#utility.yul\":2350:2352   */\n      0x1f\n        /* \"#utility.yul\":2343:2348   */\n      dup4\n        /* \"#utility.yul\":2339:2353   */\n      add\n        /* \"#utility.yul\":2335:2363   */\n      and\n        /* \"#utility.yul\":2325:2363   */\n      swap1\n      pop\n        /* \"#utility.yul\":2267:2369   */\n      swap2\n      swap1\n      pop\n      jump\t// out\n        /* \"#utility.yul\":2375:2752   */\n    tag_69:\n        /* \"#utility.yul\":2463:2466   */\n      0x00\n        /* \"#utility.yul\":2491:2530   */\n      tag_125\n        /* \"#utility.yul\":2524:2529   */\n      dup3\n        /* \"#utility.yul\":2491:2530   */\n      tag_65\n      jump\t// in\n    tag_125:\n        /* \"#utility.yul\":2546:2617   */\n      tag_126\n        /* \"#utility.yul\":2610:2616   */\n      dup2\n        /* \"#utility.yul\":2605:2608   */\n      dup6\n        /* \"#utility.yul\":2546:2617   */\n      tag_66\n      jump\t// in\n    tag_126:\n        /* \"#utility.yul\":2539:2617   */\n      swap4\n      pop\n        /* \"#utility.yul\":2626:2691   */\n      tag_127\n        /* \"#utility.yul\":2684:2690   */\n      dup2\n        /* \"#utility.yul\":2679:2682   */\n      dup6\n        /* \"#utility.yul\":2672:2676   */\n      0x20\n        /* \"#utility.yul\":2665:2670   */\n      dup7\n        /* \"#utility.yul\":2661:2677   */\n      add\n        /* \"#utility.yul\":2626:2691   */\n      tag_67\n      jump\t// in\n    tag_127:\n        /* \"#utility.yul\":2716:2745   */\n      tag_128\n        /* \"#utility.yul\":2738:2744   */\n      dup2\n        /* \"#utility.yul\":2716:2745   */\n      tag_68\n      jump\t// in\n    tag_128:\n        /* \"#utility.yul\":2711:2714   */\n      dup5\n        /* \"#utility.yul\":2707:2746   */\n      add\n        /* \"#utility.yul\":2700:2746   */\n      swap2\n      pop\n        /* \"#utility.yul\":2467:2752   */\n      pop\n        /* \"#utility.yul\":2375:2752   */\n      swap3\n      swap2\n      pop\n      pop\n      jump\t// out\n        /* \"#utility.yul\":2758:2848   */\n    tag_70:\n        /* \"#utility.yul\":2792:2799   */\n      0x00\n        /* \"#utility.yul\":2835:2840   */\n      dup2\n        /* \"#utility.yul\":2828:2841   */\n      iszero\n        /* \"#utility.yul\":2821:2842   */\n      iszero\n        /* \"#utility.yul\":2810:2842   */\n      swap1\n      pop\n        /* \"#utility.yul\":2758:2848   */\n      swap2\n      swap1\n      pop\n      jump\t// out\n        /* \"#utility.yul\":2854:2963   */\n    tag_71:\n        /* \"#utility.yul\":2935:2956   */\n      tag_131\n        /* \"#utility.yul\":2950:2955   */\n      dup2\n        /* \"#utility.yul\":2935:2956   */\n      tag_70\n      jump\t// in\n    tag_131:\n        /* \"#utility.yul\":2930:2933   */\n      dup3\n        /* \"#utility.yul\":2923:2957   */\n      mstore\n        /* \"#utility.yul\":2854:2963   */\n      pop\n      pop\n      jump\t// out\n        /* \"#utility.yul\":2969:4207   */\n    tag_16:\n        /* \"#utility.yul\":3304:3308   */\n      0x00\n        /* \"#utility.yul\":3342:3345   */\n      0xe0\n        /* \"#utility.yul\":3331:3340   */\n      dup3\n        /* \"#utility.yul\":3327:3346   */\n      add\n        /* \"#utility.yul\":3319:3346   */\n      swap1\n      pop\n        /* \"#utility.yul\":3356:3427   */\n      tag_133\n        /* \"#utility.yul\":3424:3425   */\n      0x00\n        /* \"#utility.yul\":3413:3422   */\n      dup4\n        /* \"#utility.yul\":3409:3426   */\n      add\n        /* \"#utility.yul\":3400:3406   */\n      dup11\n        /* \"#utility.yul\":3356:3427   */\n      tag_64\n      jump\t// in\n    tag_133:\n        /* \"#utility.yul\":3474:3483   */\n      dup2\n        /* \"#utility.yul\":3468:3472   */\n      dup2\n        /* \"#utility.yul\":3464:3484   */\n      sub\n        /* \"#utility.yul\":3459:3461   */\n      0x20\n        /* \"#utility.yul\":3448:3457   */\n      dup4\n        /* \"#utility.yul\":3444:3462   */\n      add\n        /* \"#utility.yul\":3437:3485   */\n      mstore\n        /* \"#utility.yul\":3502:3580   */\n      tag_134\n        /* \"#utility.yul\":3575:3579   */\n      dup2\n        /* \"#utility.yul\":3566:3572   */\n      dup10\n        /* \"#utility.yul\":3502:3580   */\n      tag_69\n      jump\t// in\n    tag_134:\n        /* \"#utility.yul\":3494:3580   */\n      swap1\n      pop\n        /* \"#utility.yul\":3627:3636   */\n      dup2\n        /* \"#utility.yul\":3621:3625   */\n      dup2\n        /* \"#utility.yul\":3617:3637   */\n      sub\n        /* \"#utility.yul\":3612:3614   */\n      0x40\n        /* \"#utility.yul\":3601:3610   */\n      dup4\n        /* \"#utility.yul\":3597:3615   */\n      add\n        /* \"#utility.yul\":3590:3638   */\n      mstore\n        /* \"#utility.yul\":3655:3733   */\n      tag_135\n        /* \"#utility.yul\":3728:3732   */\n      dup2\n        /* \"#utility.yul\":3719:3725   */\n      dup9\n        /* \"#utility.yul\":3655:3733   */\n      tag_69\n      jump\t// in\n    tag_135:\n        /* \"#utility.yul\":3647:3733   */\n      swap1\n      pop\n        /* \"#utility.yul\":3780:3789   */\n      dup2\n        /* \"#utility.yul\":3774:3778   */\n      dup2\n        /* \"#utility.yul\":3770:3790   */\n      sub\n        /* \"#utility.yul\":3765:3767   */\n      0x60\n        /* \"#utility.yul\":3754:3763   */\n      dup4\n        /* \"#utility.yul\":3750:3768   */\n      add\n        /* \"#utility.yul\":3743:3791   */\n      mstore\n        /* \"#utility.yul\":3808:3886   */\n      tag_136\n        /* \"#utility.yul\":3881:3885   */\n      dup2\n        /* \"#utility.yul\":3872:3878   */\n      dup8\n        /* \"#utility.yul\":3808:3886   */\n      tag_69\n      jump\t// in\n    tag_136:\n        /* \"#utility.yul\":3800:3886   */\n      swap1\n      pop\n        /* \"#utility.yul\":3934:3943   */\n      dup2\n        /* \"#utility.yul\":3928:3932   */\n      dup2\n        /* \"#utility.yul\":3924:3944   */\n      sub\n        /* \"#utility.yul\":3918:3921   */\n      0x80\n        /* \"#utility.yul\":3907:3916   */\n      dup4\n        /* \"#utility.yul\":3903:3922   */\n      add\n        /* \"#utility.yul\":3896:3945   */\n      mstore\n        /* \"#utility.yul\":3962:4040   */\n      tag_137\n        /* \"#utility.yul\":4035:4039   */\n      dup2\n        /* \"#utility.yul\":4026:4032   */\n      dup7\n        /* \"#utility.yul\":3962:4040   */\n      tag_69\n      jump\t// in\n    tag_137:\n        /* \"#utility.yul\":3954:4040   */\n      swap1\n      pop\n        /* \"#utility.yul\":4050:4123   */\n      tag_138\n        /* \"#utility.yul\":4118:4121   */\n      0xa0\n        /* \"#utility.yul\":4107:4116   */\n      dup4\n        /* \"#utility.yul\":4103:4122   */\n      add\n        /* \"#utility.yul\":4094:4100   */\n      dup6\n        /* \"#utility.yul\":4050:4123   */\n      tag_56\n      jump\t// in\n    tag_138:\n        /* \"#utility.yul\":4133:4200   */\n      tag_139\n        /* \"#utility.yul\":4195:4198   */\n      0xc0\n        /* \"#utility.yul\":4184:4193   */\n      dup4\n        /* \"#utility.yul\":4180:4199   */\n      add\n        /* \"#utility.yul\":4171:4177   */\n      dup5\n        /* \"#utility.yul\":4133:4200   */\n      tag_71\n      jump\t// in\n    tag_139:\n        /* \"#utility.yul\":2969:4207   */\n      swap9\n      swap8\n      pop\n      pop\n      pop\n      pop\n      pop\n      pop\n      pop\n      pop\n      jump\t// out\n        /* \"#utility.yul\":4213:4330   */\n    tag_72:\n        /* \"#utility.yul\":4322:4323   */\n      0x00\n        /* \"#utility.yul\":4319:4320   */\n      dup1\n        /* \"#utility.yul\":4312:4324   */\n      revert\n        /* \"#utility.yul\":4336:4453   */\n    tag_73:\n        /* \"#utility.yul\":4445:4446   */\n      0x00\n        /* \"#utility.yul\":4442:4443   */\n      dup1\n        /* \"#utility.yul\":4435:4447   */\n      revert\n        /* \"#utility.yul\":4459:4576   */\n    tag_74:\n        /* \"#utility.yul\":4568:4569   */\n      0x00\n        /* \"#utility.yul\":4565:4566   */\n      dup1\n        /* \"#utility.yul\":4558:4570   */\n      revert\n        /* \"#utility.yul\":4596:5149   */\n    tag_75:\n        /* \"#utility.yul\":4654:4662   */\n      0x00\n        /* \"#utility.yul\":4664:4670   */\n      dup1\n        /* \"#utility.yul\":4714:4717   */\n      dup4\n        /* \"#utility.yul\":4707:4711   */\n      0x1f\n        /* \"#utility.yul\":4699:4705   */\n      dup5\n        /* \"#utility.yul\":4695:4712   */\n      add\n        /* \"#utility.yul\":4691:4718   */\n      slt\n        /* \"#utility.yul\":4681:4803   */\n      tag_144\n      jumpi\n        /* \"#utility.yul\":4722:4801   */\n      tag_145\n      tag_72\n      jump\t// in\n    tag_145:\n        /* \"#utility.yul\":4681:4803   */\n    tag_144:\n        /* \"#utility.yul\":4835:4841   */\n      dup3\n        /* \"#utility.yul\":4822:4842   */\n      calldataload\n        /* \"#utility.yul\":4812:4842   */\n      swap1\n      pop\n        /* \"#utility.yul\":4865:4883   */\n      0xffffffffffffffff\n        /* \"#utility.yul\":4857:4863   */\n      dup2\n        /* \"#utility.yul\":4854:4884   */\n      gt\n        /* \"#utility.yul\":4851:4968   */\n      iszero\n      tag_146\n      jumpi\n        /* \"#utility.yul\":4887:4966   */\n      tag_147\n      tag_73\n      jump\t// in\n    tag_147:\n        /* \"#utility.yul\":4851:4968   */\n    tag_146:\n        /* \"#utility.yul\":5001:5005   */\n      0x20\n        /* \"#utility.yul\":4993:4999   */\n      dup4\n        /* \"#utility.yul\":4989:5006   */\n      add\n        /* \"#utility.yul\":4977:5006   */\n      swap2\n      pop\n        /* \"#utility.yul\":5055:5058   */\n      dup4\n        /* \"#utility.yul\":5047:5051   */\n      0x01\n        /* \"#utility.yul\":5039:5045   */\n      dup3\n        /* \"#utility.yul\":5035:5052   */\n      mul\n        /* \"#utility.yul\":5025:5033   */\n      dup4\n        /* \"#utility.yul\":5021:5053   */\n      add\n        /* \"#utility.yul\":5018:5059   */\n      gt\n        /* \"#utility.yul\":5015:5143   */\n      iszero\n      tag_148\n      jumpi\n        /* \"#utility.yul\":5062:5141   */\n      tag_149\n      tag_74\n      jump\t// in\n    tag_149:\n        /* \"#utility.yul\":5015:5143   */\n    tag_148:\n        /* \"#utility.yul\":4596:5149   */\n      swap3\n      pop\n      swap3\n      swap1\n      pop\n      jump\t// out\n        /* \"#utility.yul\":5155:6720   */\n    tag_22:\n        /* \"#utility.yul\":5289:5295   */\n      0x00\n        /* \"#utility.yul\":5297:5303   */\n      dup1\n        /* \"#utility.yul\":5305:5311   */\n      0x00\n        /* \"#utility.yul\":5313:5319   */\n      dup1\n        /* \"#utility.yul\":5321:5327   */\n      0x00\n        /* \"#utility.yul\":5329:5335   */\n      dup1\n        /* \"#utility.yul\":5337:5343   */\n      0x00\n        /* \"#utility.yul\":5345:5351   */\n      dup1\n        /* \"#utility.yul\":5394:5397   */\n      0x80\n        /* \"#utility.yul\":5382:5391   */\n      dup10\n        /* \"#utility.yul\":5373:5380   */\n      dup12\n        /* \"#utility.yul\":5369:5392   */\n      sub\n        /* \"#utility.yul\":5365:5398   */\n      slt\n        /* \"#utility.yul\":5362:5482   */\n      iszero\n      tag_151\n      jumpi\n        /* \"#utility.yul\":5401:5480   */\n      tag_152\n      tag_58\n      jump\t// in\n    tag_152:\n        /* \"#utility.yul\":5362:5482   */\n    tag_151:\n        /* \"#utility.yul\":5549:5550   */\n      0x00\n        /* \"#utility.yul\":5538:5547   */\n      dup10\n        /* \"#utility.yul\":5534:5551   */\n      add\n        /* \"#utility.yul\":5521:5552   */\n      calldataload\n        /* \"#utility.yul\":5579:5597   */\n      0xffffffffffffffff\n        /* \"#utility.yul\":5571:5577   */\n      dup2\n        /* \"#utility.yul\":5568:5598   */\n      gt\n        /* \"#utility.yul\":5565:5682   */\n      iszero\n      tag_153\n      jumpi\n        /* \"#utility.yul\":5601:5680   */\n      tag_154\n      tag_59\n      jump\t// in\n    tag_154:\n        /* \"#utility.yul\":5565:5682   */\n    tag_153:\n        /* \"#utility.yul\":5714:5779   */\n      tag_155\n        /* \"#utility.yul\":5771:5778   */\n      dup12\n        /* \"#utility.yul\":5762:5768   */\n      dup3\n        /* \"#utility.yul\":5751:5760   */\n      dup13\n        /* \"#utility.yul\":5747:5769   */\n      add\n        /* \"#utility.yul\":5714:5779   */\n      tag_75\n      jump\t// in\n    tag_155:\n        /* \"#utility.yul\":5696:5779   */\n      swap9\n      pop\n      swap9\n      pop\n        /* \"#utility.yul\":5492:5789   */\n      pop\n        /* \"#utility.yul\":5856:5858   */\n      0x20\n        /* \"#utility.yul\":5845:5854   */\n      dup10\n        /* \"#utility.yul\":5841:5859   */\n      add\n        /* \"#utility.yul\":5828:5860   */\n      calldataload\n        /* \"#utility.yul\":5887:5905   */\n      0xffffffffffffffff\n        /* \"#utility.yul\":5879:5885   */\n      dup2\n        /* \"#utility.yul\":5876:5906   */\n      gt\n        /* \"#utility.yul\":5873:5990   */\n      iszero\n      tag_156\n      jumpi\n        /* \"#utility.yul\":5909:5988   */\n      tag_157\n      tag_59\n      jump\t// in\n    tag_157:\n        /* \"#utility.yul\":5873:5990   */\n    tag_156:\n        /* \"#utility.yul\":6022:6087   */\n      tag_158\n        /* \"#utility.yul\":6079:6086   */\n      dup12\n        /* \"#utility.yul\":6070:6076   */\n      dup3\n        /* \"#utility.yul\":6059:6068   */\n      dup13\n        /* \"#utility.yul\":6055:6077   */\n      add\n        /* \"#utility.yul\":6022:6087   */\n      tag_75\n      jump\t// in\n    tag_158:\n        /* \"#utility.yul\":6004:6087   */\n      swap7\n      pop\n      swap7\n      pop\n        /* \"#utility.yul\":5799:6097   */\n      pop\n        /* \"#utility.yul\":6164:6166   */\n      0x40\n        /* \"#utility.yul\":6153:6162   */\n      dup10\n        /* \"#utility.yul\":6149:6167   */\n      add\n        /* \"#utility.yul\":6136:6168   */\n      calldataload\n        /* \"#utility.yul\":6195:6213   */\n      0xffffffffffffffff\n        /* \"#utility.yul\":6187:6193   */\n      dup2\n        /* \"#utility.yul\":6184:6214   */\n      gt\n        /* \"#utility.yul\":6181:6298   */\n      iszero\n      tag_159\n      jumpi\n        /* \"#utility.yul\":6217:6296   */\n      tag_160\n      tag_59\n      jump\t// in\n    tag_160:\n        /* \"#utility.yul\":6181:6298   */\n    tag_159:\n        /* \"#utility.yul\":6330:6395   */\n      tag_161\n        /* \"#utility.yul\":6387:6394   */\n      dup12\n        /* \"#utility.yul\":6378:6384   */\n      dup3\n        /* \"#utility.yul\":6367:6376   */\n      dup13\n        /* \"#utility.yul\":6363:6385   */\n      add\n        /* \"#utility.yul\":6330:6395   */\n      tag_75\n      jump\t// in\n    tag_161:\n        /* \"#utility.yul\":6312:6395   */\n      swap5\n      pop\n      swap5\n      pop\n        /* \"#utility.yul\":6107:6405   */\n      pop\n        /* \"#utility.yul\":6472:6474   */\n      0x60\n        /* \"#utility.yul\":6461:6470   */\n      dup10\n        /* \"#utility.yul\":6457:6475   */\n      add\n        /* \"#utility.yul\":6444:6476   */\n      calldataload\n        /* \"#utility.yul\":6503:6521   */\n      0xffffffffffffffff\n        /* \"#utility.yul\":6495:6501   */\n      dup2\n        /* \"#utility.yul\":6492:6522   */\n      gt\n        /* \"#utility.yul\":6489:6606   */\n      iszero\n      tag_162\n      jumpi\n        /* \"#utility.yul\":6525:6604   */\n      tag_163\n      tag_59\n      jump\t// in\n    tag_163:\n        /* \"#utility.yul\":6489:6606   */\n    tag_162:\n        /* \"#utility.yul\":6638:6703   */\n      tag_164\n        /* \"#utility.yul\":6695:6702   */\n      dup12\n        /* \"#utility.yul\":6686:6692   */\n      dup3\n        /* \"#utility.yul\":6675:6684   */\n      dup13\n        /* \"#utility.yul\":6671:6693   */\n      add\n        /* \"#utility.yul\":6638:6703   */\n      tag_75\n      jump\t// in\n    tag_164:\n        /* \"#utility.yul\":6620:6703   */\n      swap3\n      pop\n      swap3\n      pop\n        /* \"#utility.yul\":6415:6713   */\n      pop\n        /* \"#utility.yul\":5155:6720   */\n      swap3\n      swap6\n      swap9\n      pop\n      swap3\n      swap6\n      swap9\n      swap1\n      swap4\n      swap7\n      pop\n      jump\t// out\n        /* \"#utility.yul\":6726:6906   */\n    tag_76:\n        /* \"#utility.yul\":6774:6851   */\n      0x4e487b7100000000000000000000000000000000000000000000000000000000\n        /* \"#utility.yul\":6771:6772   */\n      0x00\n        /* \"#utility.yul\":6764:6852   */\n      mstore\n        /* \"#utility.yul\":6871:6875   */\n      0x22\n        /* \"#utility.yul\":6868:6869   */\n      0x04\n        /* \"#utility.yul\":6861:6876   */\n      mstore\n        /* \"#utility.yul\":6895:6899   */\n      0x24\n        /* \"#utility.yul\":6892:6893   */\n      0x00\n        /* \"#utility.yul\":6885:6900   */\n      revert\n        /* \"#utility.yul\":6912:7232   */\n    tag_25:\n        /* \"#utility.yul\":6956:6962   */\n      0x00\n        /* \"#utility.yul\":6993:6994   */\n      0x02\n        /* \"#utility.yul\":6987:6991   */\n      dup3\n        /* \"#utility.yul\":6983:6995   */\n      div\n        /* \"#utility.yul\":6973:6995   */\n      swap1\n      pop\n        /* \"#utility.yul\":7040:7041   */\n      0x01\n        /* \"#utility.yul\":7034:7038   */\n      dup3\n        /* \"#utility.yul\":7030:7042   */\n      and\n        /* \"#utility.yul\":7061:7079   */\n      dup1\n        /* \"#utility.yul\":7051:7132   */\n      tag_167\n      jumpi\n        /* \"#utility.yul\":7117:7121   */\n      0x7f\n        /* \"#utility.yul\":7109:7115   */\n      dup3\n        /* \"#utility.yul\":7105:7122   */\n      and\n        /* \"#utility.yul\":7095:7122   */\n      swap2\n      pop\n        /* \"#utility.yul\":7051:7132   */\n    tag_167:\n        /* \"#utility.yul\":7179:7181   */\n      0x20\n        /* \"#utility.yul\":7171:7177   */\n      dup3\n        /* \"#utility.yul\":7168:7182   */\n      lt\n        /* \"#utility.yul\":7148:7166   */\n      dup2\n        /* \"#utility.yul\":7145:7183   */\n      sub\n        /* \"#utility.yul\":7142:7226   */\n      tag_168\n      jumpi\n        /* \"#utility.yul\":7198:7216   */\n      tag_169\n      tag_76\n      jump\t// in\n    tag_169:\n        /* \"#utility.yul\":7142:7226   */\n    tag_168:\n        /* \"#utility.yul\":6963:7232   */\n      pop\n        /* \"#utility.yul\":6912:7232   */\n      swap2\n      swap1\n      pop\n      jump\t// out\n        /* \"#utility.yul\":7238:7418   */\n    tag_77:\n        /* \"#utility.yul\":7286:7363   */\n      0x4e487b7100000000000000000000000000000000000000000000000000000000\n        /* \"#utility.yul\":7283:7284   */\n      0x00\n        /* \"#utility.yul\":7276:7364   */\n      mstore\n        /* \"#utility.yul\":7383:7387   */\n      0x11\n        /* \"#utility.yul\":7380:7381   */\n      0x04\n        /* \"#utility.yul\":7373:7388   */\n      mstore\n        /* \"#utility.yul\":7407:7411   */\n      0x24\n        /* \"#utility.yul\":7404:7405   */\n      0x00\n        /* \"#utility.yul\":7397:7412   */\n      revert\n        /* \"#utility.yul\":7424:7657   */\n    tag_49:\n        /* \"#utility.yul\":7463:7466   */\n      0x00\n        /* \"#utility.yul\":7486:7510   */\n      tag_172\n        /* \"#utility.yul\":7504:7509   */\n      dup3\n        /* \"#utility.yul\":7486:7510   */\n      tag_55\n      jump\t// in\n    tag_172:\n        /* \"#utility.yul\":7477:7510   */\n      swap2\n      pop\n        /* \"#utility.yul\":7532:7598   */\n      0xffffffffffffffffffffffffffffffffffffffffffffffffffffffffffffffff\n        /* \"#utility.yul\":7525:7530   */\n      dup3\n        /* \"#utility.yul\":7522:7599   */\n      sub\n        /* \"#utility.yul\":7519:7622   */\n      tag_173\n      jumpi\n        /* \"#utility.yul\":7602:7620   */\n      tag_174\n      tag_77\n      jump\t// in\n    tag_174:\n        /* \"#utility.yul\":7519:7622   */\n    tag_173:\n        /* \"#utility.yul\":7649:7650   */\n      0x01\n        /* \"#utility.yul\":7642:7647   */\n      dup3\n        /* \"#utility.yul\":7638:7651   */\n      add\n        /* \"#utility.yul\":7631:7651   */\n      swap1\n      pop\n        /* \"#utility.yul\":7424:7657   */\n      swap2\n      swap1\n      pop\n      jump\t// out\n        /* \"#utility.yul\":7663:7843   */\n    tag_78:\n        /* \"#utility.yul\":7711:7788   */\n      0x4e487b7100000000000000000000000000000000000000000000000000000000\n        /* \"#utility.yul\":7708:7709   */\n      0x00\n        /* \"#utility.yul\":7701:7789   */\n      mstore\n        /* \"#utility.yul\":7808:7812   */\n      0x41\n        /* \"#utility.yul\":7805:7806   */\n      0x04\n        /* \"#utility.yul\":7798:7813   */\n      mstore\n        /* \"#utility.yul\":7832:7836   */\n      0x24\n        /* \"#utility.yul\":7829:7830   */\n      0x00\n        /* \"#utility.yul\":7822:7837   */\n      revert\n        /* \"#utility.yul\":7849:7990   */\n    tag_79:\n        /* \"#utility.yul\":7898:7902   */\n      0x00\n        /* \"#utility.yul\":7921:7924   */\n      dup2\n        /* \"#utility.yul\":7913:7924   */\n      swap1\n      pop\n        /* \"#utility.yul\":7944:7947   */\n      dup2\n        /* \"#utility.yul\":7941:7942   */\n      0x00\n        /* \"#utility.yul\":7934:7948   */\n      mstore\n        /* \"#utility.yul\":7978:7982   */\n      0x20\n        /* \"#utility.yul\":7975:7976   */\n      0x00\n        /* \"#utility.yul\":7965:7983   */\n      keccak256\n        /* \"#utility.yul\":7957:7983   */\n      swap1\n      pop\n        /* \"#utility.yul\":7849:7990   */\n      swap2\n      swap1\n      pop\n      jump\t// out\n        /* \"#utility.yul\":7996:8089   */\n    tag_80:\n        /* \"#utility.yul\":8033:8039   */\n      0x00\n        /* \"#utility.yul\":8080:8082   */\n      0x20\n        /* \"#utility.yul\":8075:8077   */\n      0x1f\n        /* \"#utility.yul\":8068:8073   */\n      dup4\n        /* \"#utility.yul\":8064:8078   */\n      add\n        /* \"#utility.yul\":8060:8083   */\n      div\n        /* \"#utility.yul\":8050:8083   */\n      swap1\n      pop\n        /* \"#utility.yul\":7996:8089   */\n      swap2\n      swap1\n      pop\n      jump\t// out\n        /* \"#utility.yul\":8095:8202   */\n    tag_81:\n        /* \"#utility.yul\":8139:8147   */\n      0x00\n        /* \"#utility.yul\":8189:8194   */\n      dup3\n        /* \"#utility.yul\":8183:8187   */\n      dup3\n        /* \"#utility.yul\":8179:8195   */\n      shl\n        /* \"#utility.yul\":8158:8195   */\n      swap1\n      pop\n        /* \"#utility.yul\":8095:8202   */\n      swap3\n      swap2\n      pop\n      pop\n      jump\t// out\n        /* \"#utility.yul\":8208:8601   */\n    tag_82:\n        /* \"#utility.yul\":8277:8283   */\n      0x00\n        /* \"#utility.yul\":8327:8328   */\n      0x08\n        /* \"#utility.yul\":8315:8325   */\n      dup4\n        /* \"#utility.yul\":8311:8329   */\n      mul\n        /* \"#utility.yul\":8350:8447   */\n      tag_180\n        /* \"#utility.yul\":8380:8446   */\n      0xffffffffffffffffffffffffffffffffffffffffffffffffffffffffffffffff\n        /* \"#utility.yul\":8369:8378   */\n      dup3\n        /* \"#utility.yul\":8350:8447   */\n      tag_81\n      jump\t// in\n    tag_180:\n        /* \"#utility.yul\":8468:8507   */\n      tag_181\n        /* \"#utility.yul\":8498:8506   */\n      dup7\n        /* \"#utility.yul\":8487:8496   */\n      dup4\n        /* \"#utility.yul\":8468:8507   */\n      tag_81\n      jump\t// in\n    tag_181:\n        /* \"#utility.yul\":8456:8507   */\n      swap6\n      pop\n        /* \"#utility.yul\":8540:8544   */\n      dup1\n        /* \"#utility.yul\":8536:8545   */\n      not\n        /* \"#utility.yul\":8529:8534   */\n      dup5\n        /* \"#utility.yul\":8525:8546   */\n      and\n        /* \"#utility.yul\":8516:8546   */\n      swap4\n      pop\n        /* \"#utility.yul\":8589:8593   */\n      dup1\n        /* \"#utility.yul\":8579:8587   */\n      dup7\n        /* \"#utility.yul\":8575:8594   */\n      and\n        /* \"#utility.yul\":8568:8573   */\n      dup5\n        /* \"#utility.yul\":8565:8595   */\n      or\n        /* \"#utility.yul\":8555:8595   */\n      swap3\n      pop\n        /* \"#utility.yul\":8284:8601   */\n      pop\n      pop\n        /* \"#utility.yul\":8208:8601   */\n      swap4\n      swap3\n      pop\n      pop\n      pop\n      jump\t// out\n        /* \"#utility.yul\":8607:8667   */\n    tag_83:\n        /* \"#utility.yul\":8635:8638   */\n      0x00\n        /* \"#utility.yul\":8656:8661   */\n      dup2\n        /* \"#utility.yul\":8649:8661   */\n      swap1\n      pop\n        /* \"#utility.yul\":8607:8667   */\n      swap2\n      swap1\n      pop\n      jump\t// out\n        /* \"#utility.yul\":8673:8815   */\n    tag_84:\n        /* \"#utility.yul\":8723:8732   */\n      0x00\n        /* \"#utility.yul\":8756:8809   */\n      tag_184\n        /* \"#utility.yul\":8774:8808   */\n      tag_185\n        /* \"#utility.yul\":8783:8807   */\n      tag_186\n        /* \"#utility.yul\":8801:8806   */\n      dup5\n        /* \"#utility.yul\":8783:8807   */\n      tag_55\n      jump\t// in\n    tag_186:\n        /* \"#utility.yul\":8774:8808   */\n      tag_83\n      jump\t// in\n    tag_185:\n        /* \"#utility.yul\":8756:8809   */\n      tag_55\n      jump\t// in\n    tag_184:\n        /* \"#utility.yul\":8743:8809   */\n      swap1\n      pop\n        /* \"#utility.yul\":8673:8815   */\n      swap2\n      swap1\n      pop\n      jump\t// out\n        /* \"#utility.yul\":8821:8896   */\n    tag_85:\n        /* \"#utility.yul\":8864:8867   */\n      0x00\n        /* \"#utility.yul\":8885:8890   */\n      dup2\n        /* \"#utility.yul\":8878:8890   */\n      swap1\n      pop\n        /* \"#utility.yul\":8821:8896   */\n      swap2\n      swap1\n      pop\n      jump\t// out\n        /* \"#utility.yul\":8902:9171   */\n    tag_86:\n        /* \"#utility.yul\":9012:9051   */\n      tag_189\n        /* \"#utility.yul\":9043:9050   */\n      dup4\n        /* \"#utility.yul\":9012:9051   */\n      tag_84\n      jump\t// in\n    tag_189:\n        /* \"#utility.yul\":9073:9164   */\n      tag_190\n        /* \"#utility.yul\":9122:9163   */\n      tag_191\n        /* \"#utility.yul\":9146:9162   */\n      dup3\n        /* \"#utility.yul\":9122:9163   */\n      tag_85\n      jump\t// in\n    tag_191:\n        /* \"#utility.yul\":9114:9120   */\n      dup5\n        /* \"#utility.yul\":9107:9111   */\n      dup5\n        /* \"#utility.yul\":9101:9112   */\n      sload\n        /* \"#utility.yul\":9073:9164   */\n      tag_82\n      jump\t// in\n    tag_190:\n        /* \"#utility.yul\":9067:9071   */\n      dup3\n        /* \"#utility.yul\":9060:9165   */\n      sstore\n        /* \"#utility.yul\":8978:9171   */\n      pop\n        /* \"#utility.yul\":8902:9171   */\n      pop\n      pop\n      pop\n      jump\t// out\n        /* \"#utility.yul\":9177:9250   */\n    tag_87:\n        /* \"#utility.yul\":9222:9225   */\n      0x00\n        /* \"#utility.yul\":9177:9250   */\n      swap1\n      jump\t// out\n        /* \"#utility.yul\":9256:9445   */\n    tag_88:\n        /* \"#utility.yul\":9333:9365   */\n      tag_194\n      tag_87\n      jump\t// in\n    tag_194:\n        /* \"#utility.yul\":9374:9439   */\n      tag_195\n        /* \"#utility.yul\":9432:9438   */\n      dup2\n        /* \"#utility.yul\":9424:9430   */\n      dup5\n        /* \"#utility.yul\":9418:9422   */\n      dup5\n        /* \"#utility.yul\":9374:9439   */\n      tag_86\n      jump\t// in\n    tag_195:\n        /* \"#utility.yul\":9309:9445   */\n      pop\n        /* \"#utility.yul\":9256:9445   */\n      pop\n      pop\n      jump\t// out\n        /* \"#utility.yul\":9451:9637   */\n    tag_89:\n        /* \"#utility.yul\":9511:9631   */\n    tag_197:\n        /* \"#utility.yul\":9528:9531   */\n      dup2\n        /* \"#utility.yul\":9521:9526   */\n      dup2\n        /* \"#utility.yul\":9518:9532   */\n      lt\n        /* \"#utility.yul\":9511:9631   */\n      iszero\n      tag_199\n      jumpi\n        /* \"#utility.yul\":9582:9621   */\n      tag_200\n        /* \"#utility.yul\":9619:9620   */\n      0x00\n        /* \"#utility.yul\":9612:9617   */\n      dup3\n        /* \"#utility.yul\":9582:9621   */\n      tag_88\n      jump\t// in\n    tag_200:\n        /* \"#utility.yul\":9555:9556   */\n      0x01\n        /* \"#utility.yul\":9548:9553   */\n      dup2\n        /* \"#utility.yul\":9544:9557   */\n      add\n        /* \"#utility.yul\":9535:9557   */\n      swap1\n      pop\n        /* \"#utility.yul\":9511:9631   */\n      jump(tag_197)\n    tag_199:\n        /* \"#utility.yul\":9451:9637   */\n      pop\n      pop\n      jump\t// out\n        /* \"#utility.yul\":9643:10186   */\n    tag_90:\n        /* \"#utility.yul\":9744:9746   */\n      0x1f\n        /* \"#utility.yul\":9739:9742   */\n      dup3\n        /* \"#utility.yul\":9736:9747   */\n      gt\n        /* \"#utility.yul\":9733:10179   */\n      iszero\n      tag_202\n      jumpi\n        /* \"#utility.yul\":9778:9816   */\n      tag_203\n        /* \"#utility.yul\":9810:9815   */\n      dup2\n        /* \"#utility.yul\":9778:9816   */\n      tag_79\n      jump\t// in\n    tag_203:\n        /* \"#utility.yul\":9862:9891   */\n      tag_204\n        /* \"#utility.yul\":9880:9890   */\n      dup5\n        /* \"#utility.yul\":9862:9891   */\n      tag_80\n      jump\t// in\n    tag_204:\n        /* \"#utility.yul\":9852:9860   */\n      dup2\n        /* \"#utility.yul\":9848:9892   */\n      add\n        /* \"#utility.yul\":10045:10047   */\n      0x20\n        /* \"#utility.yul\":10033:10043   */\n      dup6\n        /* \"#utility.yul\":10030:10048   */\n      lt\n        /* \"#utility.yul\":10027:10076   */\n      iszero\n      tag_205\n      jumpi\n        /* \"#utility.yul\":10066:10074   */\n      dup2\n        /* \"#utility.yul\":10051:10074   */\n      swap1\n      pop\n        /* \"#utility.yul\":10027:10076   */\n    tag_205:\n        /* \"#utility.yul\":10089:10169   */\n      tag_206\n        /* \"#utility.yul\":10145:10167   */\n      tag_207\n        /* \"#utility.yul\":10163:10166   */\n      dup6\n        /* \"#utility.yul\":10145:10167   */\n      tag_80\n      jump\t// in\n    tag_207:\n        /* \"#utility.yul\":10135:10143   */\n      dup4\n        /* \"#utility.yul\":10131:10168   */\n      add\n        /* \"#utility.yul\":10118:10129   */\n      dup3\n        /* \"#utility.yul\":10089:10169   */\n      tag_89\n      jump\t// in\n    tag_206:\n        /* \"#utility.yul\":9748:10179   */\n      pop\n      pop\n        /* \"#utility.yul\":9733:10179   */\n    tag_202:\n        /* \"#utility.yul\":9643:10186   */\n      pop\n      pop\n      pop\n      jump\t// out\n        /* \"#utility.yul\":10192:10309   */\n    tag_91:\n        /* \"#utility.yul\":10246:10254   */\n      0x00\n        /* \"#utility.yul\":10296:10301   */\n      dup3\n        /* \"#utility.yul\":10290:10294   */\n      dup3\n        /* \"#utility.yul\":10286:10302   */\n      shr\n        /* \"#utility.yul\":10265:10302   */\n      swap1\n      pop\n        /* \"#utility.yul\":10192:10309   */\n      swap3\n      swap2\n      pop\n      pop\n      jump\t// out\n        /* \"#utility.yul\":10315:10484   */\n    tag_92:\n        /* \"#utility.yul\":10359:10365   */\n      0x00\n        /* \"#utility.yul\":10392:10443   */\n      tag_210\n        /* \"#utility.yul\":10440:10441   */\n      0x00\n        /* \"#utility.yul\":10436:10442   */\n      not\n        /* \"#utility.yul\":10428:10433   */\n      dup5\n        /* \"#utility.yul\":10425:10426   */\n      0x08\n        /* \"#utility.yul\":10421:10434   */\n      mul\n        /* \"#utility.yul\":10392:10443   */\n      tag_91\n      jump\t// in\n    tag_210:\n        /* \"#utility.yul\":10388:10444   */\n      not\n        /* \"#utility.yul\":10473:10477   */\n      dup1\n        /* \"#utility.yul\":10467:10471   */\n      dup4\n        /* \"#utility.yul\":10463:10478   */\n      and\n        /* \"#utility.yul\":10453:10478   */\n      swap2\n      pop\n        /* \"#utility.yul\":10366:10484   */\n      pop\n        /* \"#utility.yul\":10315:10484   */\n      swap3\n      swap2\n      pop\n      pop\n      jump\t// out\n        /* \"#utility.yul\":10489:10784   */\n    tag_93:\n        /* \"#utility.yul\":10565:10569   */\n      0x00\n        /* \"#utility.yul\":10711:10740   */\n      tag_212\n        /* \"#utility.yul\":10736:10739   */\n      dup4\n        /* \"#utility.yul\":10730:10734   */\n      dup4\n        /* \"#utility.yul\":10711:10740   */\n      tag_92\n      jump\t// in\n    tag_212:\n        /* \"#utility.yul\":10703:10740   */\n      swap2\n      pop\n        /* \"#utility.yul\":10773:10776   */\n      dup3\n        /* \"#utility.yul\":10770:10771   */\n      0x02\n        /* \"#utility.yul\":10766:10777   */\n      mul\n        /* \"#utility.yul\":10760:10764   */\n      dup3\n        /* \"#utility.yul\":10757:10778   */\n      or\n        /* \"#utility.yul\":10749:10778   */\n      swap1\n      pop\n        /* \"#utility.yul\":10489:10784   */\n      swap3\n      swap2\n      pop\n      pop\n      jump\t// out\n        /* \"#utility.yul\":10789:12184   */\n    tag_51:\n        /* \"#utility.yul\":10906:10943   */\n      tag_214\n        /* \"#utility.yul\":10939:10942   */\n      dup3\n        /* \"#utility.yul\":10906:10943   */\n      tag_65\n      jump\t// in\n    tag_214:\n        /* \"#utility.yul\":11008:11026   */\n      0xffffffffffffffff\n        /* \"#utility.yul\":11000:11006   */\n      dup2\n        /* \"#utility.yul\":10997:11027   */\n      gt\n        /* \"#utility.yul\":10994:11050   */\n      iszero\n      tag_215\n      jumpi\n        /* \"#utility.yul\":11030:11048   */\n      tag_216\n      tag_78\n      jump\t// in\n    tag_216:\n        /* \"#utility.yul\":10994:11050   */\n    tag_215:\n        /* \"#utility.yul\":11074:11112   */\n      tag_217\n        /* \"#utility.yul\":11106:11110   */\n      dup3\n        /* \"#utility.yul\":11100:11111   */\n      sload\n        /* \"#utility.yul\":11074:11112   */\n      tag_25\n      jump\t// in\n    tag_217:\n        /* \"#utility.yul\":11159:11226   */\n      tag_218\n        /* \"#utility.yul\":11219:11225   */\n      dup3\n        /* \"#utility.yul\":11211:11217   */\n      dup3\n        /* \"#utility.yul\":11205:11209   */\n      dup6\n        /* \"#utility.yul\":11159:11226   */\n      tag_90\n      jump\t// in\n    tag_218:\n        /* \"#utility.yul\":11253:11254   */\n      0x00\n        /* \"#utility.yul\":11277:11281   */\n      0x20\n        /* \"#utility.yul\":11264:11281   */\n      swap1\n      pop\n        /* \"#utility.yul\":11309:11311   */\n      0x1f\n        /* \"#utility.yul\":11301:11307   */\n      dup4\n        /* \"#utility.yul\":11298:11312   */\n      gt\n        /* \"#utility.yul\":11326:11327   */\n      0x01\n        /* \"#utility.yul\":11321:11939   */\n      dup2\n      eq\n      tag_220\n      jumpi\n        /* \"#utility.yul\":11983:11984   */\n      0x00\n        /* \"#utility.yul\":12000:12006   */\n      dup5\n        /* \"#utility.yul\":11997:12074   */\n      iszero\n      tag_221\n      jumpi\n        /* \"#utility.yul\":12049:12058   */\n      dup3\n        /* \"#utility.yul\":12044:12047   */\n      dup8\n        /* \"#utility.yul\":12040:12059   */\n      add\n        /* \"#utility.yul\":12034:12060   */\n      mload\n        /* \"#utility.yul\":12025:12060   */\n      swap1\n      pop\n        /* \"#utility.yul\":11997:12074   */\n    tag_221:\n        /* \"#utility.yul\":12100:12167   */\n      tag_222\n        /* \"#utility.yul\":12160:12166   */\n      dup6\n        /* \"#utility.yul\":12153:12158   */\n      dup3\n        /* \"#utility.yul\":12100:12167   */\n      tag_93\n      jump\t// in\n    tag_222:\n        /* \"#utility.yul\":12094:12098   */\n      dup7\n        /* \"#utility.yul\":12087:12168   */\n      sstore\n        /* \"#utility.yul\":11956:12178   */\n      pop\n        /* \"#utility.yul\":11291:12178   */\n      jump(tag_219)\n        /* \"#utility.yul\":11321:11939   */\n    tag_220:\n        /* \"#utility.yul\":11373:11377   */\n      0x1f\n        /* \"#utility.yul\":11369:11378   */\n      not\n        /* \"#utility.yul\":11361:11367   */\n      dup5\n        /* \"#utility.yul\":11357:11379   */\n      and\n        /* \"#utility.yul\":11407:11444   */\n      tag_223\n        /* \"#utility.yul\":11439:11443   */\n      dup7\n        /* \"#utility.yul\":11407:11444   */\n      tag_79\n      jump\t// in\n    tag_223:\n        /* \"#utility.yul\":11466:11467   */\n      0x00\n        /* \"#utility.yul\":11480:11688   */\n    tag_224:\n        /* \"#utility.yul\":11494:11501   */\n      dup3\n        /* \"#utility.yul\":11491:11492   */\n      dup2\n        /* \"#utility.yul\":11488:11502   */\n      lt\n        /* \"#utility.yul\":11480:11688   */\n      iszero\n      tag_226\n      jumpi\n        /* \"#utility.yul\":11573:11582   */\n      dup5\n        /* \"#utility.yul\":11568:11571   */\n      dup10\n        /* \"#utility.yul\":11564:11583   */\n      add\n        /* \"#utility.yul\":11558:11584   */\n      mload\n        /* \"#utility.yul\":11550:11556   */\n      dup3\n        /* \"#utility.yul\":11543:11585   */\n      sstore\n        /* \"#utility.yul\":11624:11625   */\n      0x01\n        /* \"#utility.yul\":11616:11622   */\n      dup3\n        /* \"#utility.yul\":11612:11626   */\n      add\n        /* \"#utility.yul\":11602:11626   */\n      swap2\n      pop\n        /* \"#utility.yul\":11671:11673   */\n      0x20\n        /* \"#utility.yul\":11660:11669   */\n      dup6\n        /* \"#utility.yul\":11656:11674   */\n      add\n        /* \"#utility.yul\":11643:11674   */\n      swap5\n      pop\n        /* \"#utility.yul\":11517:11521   */\n      0x20\n        /* \"#utility.yul\":11514:11515   */\n      dup2\n        /* \"#utility.yul\":11510:11522   */\n      add\n        /* \"#utility.yul\":11505:11522   */\n      swap1\n      pop\n        /* \"#utility.yul\":11480:11688   */\n      jump(tag_224)\n    tag_226:\n        /* \"#utility.yul\":11716:11722   */\n      dup7\n        /* \"#utility.yul\":11707:11714   */\n      dup4\n        /* \"#utility.yul\":11704:11723   */\n      lt\n        /* \"#utility.yul\":11701:11880   */\n      iszero\n      tag_227\n      jumpi\n        /* \"#utility.yul\":11774:11783   */\n      dup5\n        /* \"#utility.yul\":11769:11772   */\n      dup10\n        /* \"#utility.yul\":11765:11784   */\n      add\n        /* \"#utility.yul\":11759:11785   */\n      mload\n        /* \"#utility.yul\":11817:11865   */\n      tag_228\n        /* \"#utility.yul\":11859:11863   */\n      0x1f\n        /* \"#utility.yul\":11851:11857   */\n      dup10\n        /* \"#utility.yul\":11847:11864   */\n      and\n        /* \"#utility.yul\":11836:11845   */\n      dup3\n        /* \"#utility.yul\":11817:11865   */\n      tag_92\n      jump\t// in\n    tag_228:\n        /* \"#utility.yul\":11809:11815   */\n      dup4\n        /* \"#utility.yul\":11802:11866   */\n      sstore\n        /* \"#utility.yul\":11724:11880   */\n      pop\n        /* \"#utility.yul\":11701:11880   */\n    tag_227:\n        /* \"#utility.yul\":11926:11927   */\n      0x01\n        /* \"#utility.yul\":11922:11923   */\n      0x02\n        /* \"#utility.yul\":11914:11920   */\n      dup9\n        /* \"#utility.yul\":11910:11924   */\n      mul\n        /* \"#utility.yul\":11906:11928   */\n      add\n        /* \"#utility.yul\":11900:11904   */\n      dup9\n        /* \"#utility.yul\":11893:11929   */\n      sstore\n        /* \"#utility.yul\":11328:11939   */\n      pop\n      pop\n      pop\n        /* \"#utility.yul\":11291:12178   */\n    tag_219:\n      pop\n        /* \"#utility.yul\":10881:12184   */\n      pop\n      pop\n      pop\n        /* \"#utility.yul\":10789:12184   */\n      pop\n      pop\n      jump\t// out\n\n    auxdata: 0xa2646970667358221220af4cb578c629550822644fc388d7dc41a2facf6918c288cb23131b818bce79e564736f6c63430008120033\n}\n",
				"bytecode": {
					"linkReferences": {},
					"object": "60806040526064600055600060015534801561001a57600080fd5b50610d6f8061002a6000396000f3fe608060405234801561001057600080fd5b506004361061004c5760003560e01c806361b8ce8c14610051578063b2395a141461006f578063ddca3f43146100a5578063ec671486146100c3575b600080fd5b6100596100df565b6040516100669190610672565b60405180910390f35b610089600480360381019061008491906106c3565b6100e5565b60405161009c97969594939291906107dc565b60405180910390f35b6100ad610374565b6040516100ba9190610672565b60405180910390f35b6100dd60048036038101906100d891906108cc565b61037a565b005b60015481565b60026020528060005260406000206000915090508060000160009054906101000a900473ffffffffffffffffffffffffffffffffffffffff169080600101805461012e906109e4565b80601f016020809104026020016040519081016040528092919081815260200182805461015a906109e4565b80156101a75780601f1061017c576101008083540402835291602001916101a7565b820191906000526020600020905b81548152906001019060200180831161018a57829003601f168201915b5050505050908060020180546101bc906109e4565b80601f01602080910402602001604051908101604052809291908181526020018280546101e8906109e4565b80156102355780601f1061020a57610100808354040283529160200191610235565b820191906000526020600020905b81548152906001019060200180831161021857829003601f168201915b50505050509080600301805461024a906109e4565b80601f0160208091040260200160405190810160405280929190818152602001828054610276906109e4565b80156102c35780601f10610298576101008083540402835291602001916102c3565b820191906000526020600020905b8154815290600101906020018083116102a657829003601f168201915b5050505050908060040180546102d8906109e4565b80601f0160208091040260200160405190810160405280929190818152602001828054610304906109e4565b80156103515780601f1061032657610100808354040283529160200191610351565b820191906000526020600020905b81548152906001019060200180831161033457829003601f168201915b5050505050908060050154908060060160009054906101000a900460ff16905087565b60005481565b610382610604565b88888080601f016020809104026020016040519081016040528093929190818152602001838380828437600081840152601f19601f82011690508083019250505050505050816020018190525086868080601f016020809104026020016040519081016040528093929190818152602001838380828437600081840152601f19601f82011690508083019250505050505050816040018190525084848080601f016020809104026020016040519081016040528093929190818152602001838380828437600081840152601f19601f82011690508083019250505050505050816060018190525082828080601f016020809104026020016040519081016040528093929190818152602001838380828437600081840152601f19601f82011690508083019250505050505050816080018190525060018160c001901515908115158152505033816000019073ffffffffffffffffffffffffffffffffffffffff16908173ffffffffffffffffffffffffffffffffffffffff16815250506001600081548092919061051290610a44565b91905055508060026000600154815260200190815260200160002060008201518160000160006101000a81548173ffffffffffffffffffffffffffffffffffffffff021916908373ffffffffffffffffffffffffffffffffffffffff16021790555060208201518160010190816105899190610c67565b50604082015181600201908161059f9190610c67565b5060608201518160030190816105b59190610c67565b5060808201518160040190816105cb9190610c67565b5060a0820151816005015560c08201518160060160006101000a81548160ff021916908315150217905550905050505050505050505050565b6040518060e00160405280600073ffffffffffffffffffffffffffffffffffffffff16815260200160608152602001606081526020016060815260200160608152602001600081526020016000151581525090565b6000819050919050565b61066c81610659565b82525050565b60006020820190506106876000830184610663565b92915050565b600080fd5b600080fd5b6106a081610659565b81146106ab57600080fd5b50565b6000813590506106bd81610697565b92915050565b6000602082840312156106d9576106d861068d565b5b60006106e7848285016106ae565b91505092915050565b600073ffffffffffffffffffffffffffffffffffffffff82169050919050565b600061071b826106f0565b9050919050565b61072b81610710565b82525050565b600081519050919050565b600082825260208201905092915050565b60005b8381101561076b578082015181840152602081019050610750565b60008484015250505050565b6000601f19601f8301169050919050565b600061079382610731565b61079d818561073c565b93506107ad81856020860161074d565b6107b681610777565b840191505092915050565b60008115159050919050565b6107d6816107c1565b82525050565b600060e0820190506107f1600083018a610722565b81810360208301526108038189610788565b905081810360408301526108178188610788565b9050818103606083015261082b8187610788565b9050818103608083015261083f8186610788565b905061084e60a0830185610663565b61085b60c08301846107cd565b98975050505050505050565b600080fd5b600080fd5b600080fd5b60008083601f84011261088c5761088b610867565b5b8235905067ffffffffffffffff8111156108a9576108a861086c565b5b6020830191508360018202830111156108c5576108c4610871565b5b9250929050565b6000806000806000806000806080898b0312156108ec576108eb61068d565b5b600089013567ffffffffffffffff81111561090a57610909610692565b5b6109168b828c01610876565b9850985050602089013567ffffffffffffffff81111561093957610938610692565b5b6109458b828c01610876565b9650965050604089013567ffffffffffffffff81111561096857610967610692565b5b6109748b828c01610876565b9450945050606089013567ffffffffffffffff81111561099757610996610692565b5b6109a38b828c01610876565b92509250509295985092959890939650565b7f4e487b7100000000000000000000000000000000000000000000000000000000600052602260045260246000fd5b600060028204905060018216806109fc57607f821691505b602082108103610a0f57610a0e6109b5565b5b50919050565b7f4e487b7100000000000000000000000000000000000000000000000000000000600052601160045260246000fd5b6000610a4f82610659565b91507fffffffffffffffffffffffffffffffffffffffffffffffffffffffffffffffff8203610a8157610a80610a15565b5b600182019050919050565b7f4e487b7100000000000000000000000000000000000000000000000000000000600052604160045260246000fd5b60008190508160005260206000209050919050565b60006020601f8301049050919050565b600082821b905092915050565b600060088302610b1d7fffffffffffffffffffffffffffffffffffffffffffffffffffffffffffffffff82610ae0565b610b278683610ae0565b95508019841693508086168417925050509392505050565b6000819050919050565b6000610b64610b5f610b5a84610659565b610b3f565b610659565b9050919050565b6000819050919050565b610b7e83610b49565b610b92610b8a82610b6b565b848454610aed565b825550505050565b600090565b610ba7610b9a565b610bb2818484610b75565b505050565b5b81811015610bd657610bcb600082610b9f565b600181019050610bb8565b5050565b601f821115610c1b57610bec81610abb565b610bf584610ad0565b81016020851015610c04578190505b610c18610c1085610ad0565b830182610bb7565b50505b505050565b600082821c905092915050565b6000610c3e60001984600802610c20565b1980831691505092915050565b6000610c578383610c2d565b9150826002028217905092915050565b610c7082610731565b67ffffffffffffffff811115610c8957610c88610a8c565b5b610c9382546109e4565b610c9e828285610bda565b600060209050601f831160018114610cd15760008415610cbf578287015190505b610cc98582610c4b565b865550610d31565b601f198416610cdf86610abb565b60005b82811015610d0757848901518255600182019150602085019450602081019050610ce2565b86831015610d245784890151610d20601f891682610c2d565b8355505b6001600288020188555050505b50505050505056fea2646970667358221220af4cb578c629550822644fc388d7dc41a2facf6918c288cb23131b818bce79e564736f6c63430008120033",
					"opcodes": "PUSH1 0x80 PUSH1 0x40 MSTORE PUSH1 0x64 PUSH1 0x0 SSTORE PUSH1 0x0 PUSH1 0x1 SSTORE CALLVALUE DUP1 ISZERO PUSH2 0x1A JUMPI PUSH1 0x0 DUP1 REVERT JUMPDEST POP PUSH2 0xD6F DUP1 PUSH2 0x2A PUSH1 0x0 CODECOPY PUSH1 0x0 RETURN INVALID PUSH1 0x80 PUSH1 0x40 MSTORE CALLVALUE DUP1 ISZERO PUSH2 0x10 JUMPI PUSH1 0x0 DUP1 REVERT JUMPDEST POP PUSH1 0x4 CALLDATASIZE LT PUSH2 0x4C JUMPI PUSH1 0x0 CALLDATALOAD PUSH1 0xE0 SHR DUP1 PUSH4 0x61B8CE8C EQ PUSH2 0x51 JUMPI DUP1 PUSH4 0xB2395A14 EQ PUSH2 0x6F JUMPI DUP1 PUSH4 0xDDCA3F43 EQ PUSH2 0xA5 JUMPI DUP1 PUSH4 0xEC671486 EQ PUSH2 0xC3 JUMPI JUMPDEST PUSH1 0x0 DUP1 REVERT JUMPDEST PUSH2 0x59 PUSH2 0xDF JUMP JUMPDEST PUSH1 0x40 MLOAD PUSH2 0x66 SWAP2 SWAP1 PUSH2 0x672 JUMP JUMPDEST PUSH1 0x40 MLOAD DUP1 SWAP2 SUB SWAP1 RETURN JUMPDEST PUSH2 0x89 PUSH1 0x4 DUP1 CALLDATASIZE SUB DUP2 ADD SWAP1 PUSH2 0x84 SWAP2 SWAP1 PUSH2 0x6C3 JUMP JUMPDEST PUSH2 0xE5 JUMP JUMPDEST PUSH1 0x40 MLOAD PUSH2 0x9C SWAP8 SWAP7 SWAP6 SWAP5 SWAP4 SWAP3 SWAP2 SWAP1 PUSH2 0x7DC JUMP JUMPDEST PUSH1 0x40 MLOAD DUP1 SWAP2 SUB SWAP1 RETURN JUMPDEST PUSH2 0xAD PUSH2 0x374 JUMP JUMPDEST PUSH1 0x40 MLOAD PUSH2 0xBA SWAP2 SWAP1 PUSH2 0x672 JUMP JUMPDEST PUSH1 0x40 MLOAD DUP1 SWAP2 SUB SWAP1 RETURN JUMPDEST PUSH2 0xDD PUSH1 0x4 DUP1 CALLDATASIZE SUB DUP2 ADD SWAP1 PUSH2 0xD8 SWAP2 SWAP1 PUSH2 0x8CC JUMP JUMPDEST PUSH2 0x37A JUMP JUMPDEST STOP JUMPDEST PUSH1 0x1 SLOAD DUP2 JUMP JUMPDEST PUSH1 0x2 PUSH1 0x20 MSTORE DUP1 PUSH1 0x0 MSTORE PUSH1 0x40 PUSH1 0x0 KECCAK256 PUSH1 0x0 SWAP2 POP SWAP1 POP DUP1 PUSH1 0x0 ADD PUSH1 0x0 SWAP1 SLOAD SWAP1 PUSH2 0x100 EXP SWAP1 DIV PUSH20 0xFFFFFFFFFFFFFFFFFFFFFFFFFFFFFFFFFFFFFFFF AND SWAP1 DUP1 PUSH1 0x1 ADD DUP1 SLOAD PUSH2 0x12E SWAP1 PUSH2 0x9E4 JUMP JUMPDEST DUP1 PUSH1 0x1F ADD PUSH1 0x20 DUP1 SWAP2 DIV MUL PUSH1 0x20 ADD PUSH1 0x40 MLOAD SWAP1 DUP2 ADD PUSH1 0x40 MSTORE DUP1 SWAP3 SWAP2 SWAP1 DUP2 DUP2 MSTORE PUSH1 0x20 ADD DUP3 DUP1 SLOAD PUSH2 0x15A SWAP1 PUSH2 0x9E4 JUMP JUMPDEST DUP1 ISZERO PUSH2 0x1A7 JUMPI DUP1 PUSH1 0x1F LT PUSH2 0x17C JUMPI PUSH2 0x100 DUP1 DUP4 SLOAD DIV MUL DUP4 MSTORE SWAP2 PUSH1 0x20 ADD SWAP2 PUSH2 0x1A7 JUMP JUMPDEST DUP3 ADD SWAP2 SWAP1 PUSH1 0x0 MSTORE PUSH1 0x20 PUSH1 0x0 KECCAK256 SWAP1 JUMPDEST DUP2 SLOAD DUP2 MSTORE SWAP1 PUSH1 0x1 ADD SWAP1 PUSH1 0x20 ADD DUP1 DUP4 GT PUSH2 0x18A JUMPI DUP3 SWAP1 SUB PUSH1 0x1F AND DUP3 ADD SWAP2 JUMPDEST POP POP POP POP POP SWAP1 DUP1 PUSH1 0x2 ADD DUP1 SLOAD PUSH2 0x1BC SWAP1 PUSH2 0x9E4 JUMP JUMPDEST DUP1 PUSH1 0x1F ADD PUSH1 0x20 DUP1 SWAP2 DIV MUL PUSH1 0x20 ADD PUSH1 0x40 MLOAD SWAP1 DUP2 ADD PUSH1 0x40 MSTORE DUP1 SWAP3 SWAP2 SWAP1 DUP2 DUP2 MSTORE PUSH1 0x20 ADD DUP3 DUP1 SLOAD PUSH2 0x1E8 SWAP1 PUSH2 0x9E4 JUMP JUMPDEST DUP1 ISZERO PUSH2 0x235 JUMPI DUP1 PUSH1 0x1F LT PUSH2 0x20A JUMPI PUSH2 0x100 DUP1 DUP4 SLOAD DIV MUL DUP4 MSTORE SWAP2 PUSH1 0x20 ADD SWAP2 PUSH2 0x235 JUMP JUMPDEST DUP3 ADD SWAP2 SWAP1 PUSH1 0x0 MSTORE PUSH1 0x20 PUSH1 0x0 KECCAK256 SWAP1 JUMPDEST DUP2 SLOAD DUP2 MSTORE SWAP1 PUSH1 0x1 ADD SWAP1 PUSH1 0x20 ADD DUP1 DUP4 GT PUSH2 0x218 JUMPI DUP3 SWAP1 SUB PUSH1 0x1F AND DUP3 ADD SWAP2 JUMPDEST POP POP POP POP POP SWAP1 DUP1 PUSH1 0x3 ADD DUP1 SLOAD PUSH2 0x24A SWAP1 PUSH2 0x9E4 JUMP JUMPDEST DUP1 PUSH1 0x1F ADD PUSH1 0x20 DUP1 SWAP2 DIV MUL PUSH1 0x20 ADD PUSH1 0x40 MLOAD SWAP1 DUP2 ADD PUSH1 0x40 MSTORE DUP1 SWAP3 SWAP2 SWAP1 DUP2 DUP2 MSTORE PUSH1 0x20 ADD DUP3 DUP1 SLOAD PUSH2 0x276 SWAP1 PUSH2 0x9E4 JUMP JUMPDEST DUP1 ISZERO PUSH2 0x2C3 JUMPI DUP1 PUSH1 0x1F LT PUSH2 0x298 JUMPI PUSH2 0x100 DUP1 DUP4 SLOAD DIV MUL DUP4 MSTORE SWAP2 PUSH1 0x20 ADD SWAP2 PUSH2 0x2C3 JUMP JUMPDEST DUP3 ADD SWAP2 SWAP1 PUSH1 0x0 MSTORE PUSH1 0x20 PUSH1 0x0 KECCAK256 SWAP1 JUMPDEST DUP2 SLOAD DUP2 MSTORE SWAP1 PUSH1 0x1 ADD SWAP1 PUSH1 0x20 ADD DUP1 DUP4 GT PUSH2 0x2A6 JUMPI DUP3 SWAP1 SUB PUSH1 0x1F AND DUP3 ADD SWAP2 JUMPDEST POP POP POP POP POP SWAP1 DUP1 PUSH1 0x4 ADD DUP1 SLOAD PUSH2 0x2D8 SWAP1 PUSH2 0x9E4 JUMP JUMPDEST DUP1 PUSH1 0x1F ADD PUSH1 0x20 DUP1 SWAP2 DIV MUL PUSH1 0x20 ADD PUSH1 0x40 MLOAD SWAP1 DUP2 ADD PUSH1 0x40 MSTORE DUP1 SWAP3 SWAP2 SWAP1 DUP2 DUP2 MSTORE PUSH1 0x20 ADD DUP3 DUP1 SLOAD PUSH2 0x304 SWAP1 PUSH2 0x9E4 JUMP JUMPDEST DUP1 ISZERO PUSH2 0x351 JUMPI DUP1 PUSH1 0x1F LT PUSH2 0x326 JUMPI PUSH2 0x100 DUP1 DUP4 SLOAD DIV MUL DUP4 MSTORE SWAP2 PUSH1 0x20 ADD SWAP2 PUSH2 0x351 JUMP JUMPDEST DUP3 ADD SWAP2 SWAP1 PUSH1 0x0 MSTORE PUSH1 0x20 PUSH1 0x0 KECCAK256 SWAP1 JUMPDEST DUP2 SLOAD DUP2 MSTORE SWAP1 PUSH1 0x1 ADD SWAP1 PUSH1 0x20 ADD DUP1 DUP4 GT PUSH2 0x334 JUMPI DUP3 SWAP1 SUB PUSH1 0x1F AND DUP3 ADD SWAP2 JUMPDEST POP POP POP POP POP SWAP1 DUP1 PUSH1 0x5 ADD SLOAD SWAP1 DUP1 PUSH1 0x6 ADD PUSH1 0x0 SWAP1 SLOAD SWAP1 PUSH2 0x100 EXP SWAP1 DIV PUSH1 0xFF AND SWAP1 POP DUP8 JUMP JUMPDEST PUSH1 0x0 SLOAD DUP2 JUMP JUMPDEST PUSH2 0x382 PUSH2 0x604 JUMP JUMPDEST DUP9 DUP9 DUP1 DUP1 PUSH1 0x1F ADD PUSH1 0x20 DUP1 SWAP2 DIV MUL PUSH1 0x20 ADD PUSH1 0x40 MLOAD SWAP1 DUP2 ADD PUSH1 0x40 MSTORE DUP1 SWAP4 SWAP3 SWAP2 SWAP1 DUP2 DUP2 MSTORE PUSH1 0x20 ADD DUP4 DUP4 DUP1 DUP3 DUP5 CALLDATACOPY PUSH1 0x0 DUP2 DUP5 ADD MSTORE PUSH1 0x1F NOT PUSH1 0x1F DUP3 ADD AND SWAP1 POP DUP1 DUP4 ADD SWAP3 POP POP POP POP POP POP POP DUP2 PUSH1 0x20 ADD DUP2 SWAP1 MSTORE POP DUP7 DUP7 DUP1 DUP1 PUSH1 0x1F ADD PUSH1 0x20 DUP1 SWAP2 DIV MUL PUSH1 0x20 ADD PUSH1 0x40 MLOAD SWAP1 DUP2 ADD PUSH1 0x40 MSTORE DUP1 SWAP4 SWAP3 SWAP2 SWAP1 DUP2 DUP2 MSTORE PUSH1 0x20 ADD DUP4 DUP4 DUP1 DUP3 DUP5 CALLDATACOPY PUSH1 0x0 DUP2 DUP5 ADD MSTORE PUSH1 0x1F NOT PUSH1 0x1F DUP3 ADD AND SWAP1 POP DUP1 DUP4 ADD SWAP3 POP POP POP POP POP POP POP DUP2 PUSH1 0x40 ADD DUP2 SWAP1 MSTORE POP DUP5 DUP5 DUP1 DUP1 PUSH1 0x1F ADD PUSH1 0x20 DUP1 SWAP2 DIV MUL PUSH1 0x20 ADD PUSH1 0x40 MLOAD SWAP1 DUP2 ADD PUSH1 0x40 MSTORE DUP1 SWAP4 SWAP3 SWAP2 SWAP1 DUP2 DUP2 MSTORE PUSH1 0x20 ADD DUP4 DUP4 DUP1 DUP3 DUP5 CALLDATACOPY PUSH1 0x0 DUP2 DUP5 ADD MSTORE PUSH1 0x1F NOT PUSH1 0x1F DUP3 ADD AND SWAP1 POP DUP1 DUP4 ADD SWAP3 POP POP POP POP POP POP POP DUP2 PUSH1 0x60 ADD DUP2 SWAP1 MSTORE POP DUP3 DUP3 DUP1 DUP1 PUSH1 0x1F ADD PUSH1 0x20 DUP1 SWAP2 DIV MUL PUSH1 0x20 ADD PUSH1 0x40 MLOAD SWAP1 DUP2 ADD PUSH1 0x40 MSTORE DUP1 SWAP4 SWAP3 SWAP2 SWAP1 DUP2 DUP2 MSTORE PUSH1 0x20 ADD DUP4 DUP4 DUP1 DUP3 DUP5 CALLDATACOPY PUSH1 0x0 DUP2 DUP5 ADD MSTORE PUSH1 0x1F NOT PUSH1 0x1F DUP3 ADD AND SWAP1 POP DUP1 DUP4 ADD SWAP3 POP POP POP POP POP POP POP DUP2 PUSH1 0x80 ADD DUP2 SWAP1 MSTORE POP PUSH1 0x1 DUP2 PUSH1 0xC0 ADD SWAP1 ISZERO ISZERO SWAP1 DUP2 ISZERO ISZERO DUP2 MSTORE POP POP CALLER DUP2 PUSH1 0x0 ADD SWAP1 PUSH20 0xFFFFFFFFFFFFFFFFFFFFFFFFFFFFFFFFFFFFFFFF AND SWAP1 DUP2 PUSH20 0xFFFFFFFFFFFFFFFFFFFFFFFFFFFFFFFFFFFFFFFF AND DUP2 MSTORE POP POP PUSH1 0x1 PUSH1 0x0 DUP2 SLOAD DUP1 SWAP3 SWAP2 SWAP1 PUSH2 0x512 SWAP1 PUSH2 0xA44 JUMP JUMPDEST SWAP2 SWAP1 POP SSTORE POP DUP1 PUSH1 0x2 PUSH1 0x0 PUSH1 0x1 SLOAD DUP2 MSTORE PUSH1 0x20 ADD SWAP1 DUP2 MSTORE PUSH1 0x20 ADD PUSH1 0x0 KECCAK256 PUSH1 0x0 DUP3 ADD MLOAD DUP2 PUSH1 0x0 ADD PUSH1 0x0 PUSH2 0x100 EXP DUP2 SLOAD DUP2 PUSH20 0xFFFFFFFFFFFFFFFFFFFFFFFFFFFFFFFFFFFFFFFF MUL NOT AND SWAP1 DUP4 PUSH20 0xFFFFFFFFFFFFFFFFFFFFFFFFFFFFFFFFFFFFFFFF AND MUL OR SWAP1 SSTORE POP PUSH1 0x20 DUP3 ADD MLOAD DUP2 PUSH1 0x1 ADD SWAP1 DUP2 PUSH2 0x589 SWAP2 SWAP1 PUSH2 0xC67 JUMP JUMPDEST POP PUSH1 0x40 DUP3 ADD MLOAD DUP2 PUSH1 0x2 ADD SWAP1 DUP2 PUSH2 0x59F SWAP2 SWAP1 PUSH2 0xC67 JUMP JUMPDEST POP PUSH1 0x60 DUP3 ADD MLOAD DUP2 PUSH1 0x3 ADD SWAP1 DUP2 PUSH2 0x5B5 SWAP2 SWAP1 PUSH2 0xC67 JUMP JUMPDEST POP PUSH1 0x80 DUP3 ADD MLOAD DUP2 PUSH1 0x4 ADD SWAP1 DUP2 PUSH2 0x5CB SWAP2 SWAP1 PUSH2 0xC67 JUMP JUMPDEST POP PUSH1 0xA0 DUP3 ADD MLOAD DUP2 PUSH1 0x5 ADD SSTORE PUSH1 0xC0 DUP3 ADD MLOAD DUP2 PUSH1 0x6 ADD PUSH1 0x0 PUSH2 0x100 EXP DUP2 SLOAD DUP2 PUSH1 0xFF MUL NOT AND SWAP1 DUP4 ISZERO ISZERO MUL OR SWAP1 SSTORE POP SWAP1 POP POP POP POP POP POP POP POP POP POP POP JUMP JUMPDEST PUSH1 0x40 MLOAD DUP1 PUSH1 0xE0 ADD PUSH1 0x40 MSTORE DUP1 PUSH1 0x0 PUSH20 0xFFFFFFFFFFFFFFFFFFFFFFFFFFFFFFFFFFFFFFFF AND DUP2 MSTORE PUSH1 0x20 ADD PUSH1 0x60 DUP2 MSTORE PUSH1 0x20 ADD PUSH1 0x60 DUP2 MSTORE PUSH1 0x20 ADD PUSH1 0x60 DUP2 MSTORE PUSH1 0x20 ADD PUSH1 0x60 DUP2 MSTORE PUSH1 0x20 ADD PUSH1 0x0 DUP2 MSTORE PUSH1 0x20 ADD PUSH1 0x0 ISZERO ISZERO DUP2 MSTORE POP SWAP1 JUMP JUMPDEST PUSH1 0x0 DUP2 SWAP1 POP SWAP2 SWAP1 POP JUMP JUMPDEST PUSH2 0x66C DUP2 PUSH2 0x659 JUMP JUMPDEST DUP3 MSTORE POP POP JUMP JUMPDEST PUSH1 0x0 PUSH1 0x20 DUP3 ADD SWAP1 POP PUSH2 0x687 PUSH1 0x0 DUP4 ADD DUP5 PUSH2 0x663 JUMP JUMPDEST SWAP3 SWAP2 POP POP JUMP JUMPDEST PUSH1 0x0 DUP1 REVERT JUMPDEST PUSH1 0x0 DUP1 REVERT JUMPDEST PUSH2 0x6A0 DUP2 PUSH2 0x659 JUMP JUMPDEST DUP2 EQ PUSH2 0x6AB JUMPI PUSH1 0x0 DUP1 REVERT JUMPDEST POP JUMP JUMPDEST PUSH1 0x0 DUP2 CALLDATALOAD SWAP1 POP PUSH2 0x6BD DUP2 PUSH2 0x697 JUMP JUMPDEST SWAP3 SWAP2 POP POP JUMP JUMPDEST PUSH1 0x0 PUSH1 0x20 DUP3 DUP5 SUB SLT ISZERO PUSH2 0x6D9 JUMPI PUSH2 0x6D8 PUSH2 0x68D JUMP JUMPDEST JUMPDEST PUSH1 0x0 PUSH2 0x6E7 DUP5 DUP3 DUP6 ADD PUSH2 0x6AE JUMP JUMPDEST SWAP2 POP POP SWAP3 SWAP2 POP POP JUMP JUMPDEST PUSH1 0x0 PUSH20 0xFFFFFFFFFFFFFFFFFFFFFFFFFFFFFFFFFFFFFFFF DUP3 AND SWAP1 POP SWAP2 SWAP1 POP JUMP JUMPDEST PUSH1 0x0 PUSH2 0x71B DUP3 PUSH2 0x6F0 JUMP JUMPDEST SWAP1 POP SWAP2 SWAP1 POP JUMP JUMPDEST PUSH2 0x72B DUP2 PUSH2 0x710 JUMP JUMPDEST DUP3 MSTORE POP POP JUMP JUMPDEST PUSH1 0x0 DUP2 MLOAD SWAP1 POP SWAP2 SWAP1 POP JUMP JUMPDEST PUSH1 0x0 DUP3 DUP3 MSTORE PUSH1 0x20 DUP3 ADD SWAP1 POP SWAP3 SWAP2 POP POP JUMP JUMPDEST PUSH1 0x0 JUMPDEST DUP4 DUP2 LT ISZERO PUSH2 0x76B JUMPI DUP1 DUP3 ADD MLOAD DUP2 DUP5 ADD MSTORE PUSH1 0x20 DUP2 ADD SWAP1 POP PUSH2 0x750 JUMP JUMPDEST PUSH1 0x0 DUP5 DUP5 ADD MSTORE POP POP POP POP JUMP JUMPDEST PUSH1 0x0 PUSH1 0x1F NOT PUSH1 0x1F DUP4 ADD AND SWAP1 POP SWAP2 SWAP1 POP JUMP JUMPDEST PUSH1 0x0 PUSH2 0x793 DUP3 PUSH2 0x731 JUMP JUMPDEST PUSH2 0x79D DUP2 DUP6 PUSH2 0x73C JUMP JUMPDEST SWAP4 POP PUSH2 0x7AD DUP2 DUP6 PUSH1 0x20 DUP7 ADD PUSH2 0x74D JUMP JUMPDEST PUSH2 0x7B6 DUP2 PUSH2 0x777 JUMP JUMPDEST DUP5 ADD SWAP2 POP POP SWAP3 SWAP2 POP POP JUMP JUMPDEST PUSH1 0x0 DUP2 ISZERO ISZERO SWAP1 POP SWAP2 SWAP1 POP JUMP JUMPDEST PUSH2 0x7D6 DUP2 PUSH2 0x7C1 JUMP JUMPDEST DUP3 MSTORE POP POP JUMP JUMPDEST PUSH1 0x0 PUSH1 0xE0 DUP3 ADD SWAP1 POP PUSH2 0x7F1 PUSH1 0x0 DUP4 ADD DUP11 PUSH2 0x722 JUMP JUMPDEST DUP2 DUP2 SUB PUSH1 0x20 DUP4 ADD MSTORE PUSH2 0x803 DUP2 DUP10 PUSH2 0x788 JUMP JUMPDEST SWAP1 POP DUP2 DUP2 SUB PUSH1 0x40 DUP4 ADD MSTORE PUSH2 0x817 DUP2 DUP9 PUSH2 0x788 JUMP JUMPDEST SWAP1 POP DUP2 DUP2 SUB PUSH1 0x60 DUP4 ADD MSTORE PUSH2 0x82B DUP2 DUP8 PUSH2 0x788 JUMP JUMPDEST SWAP1 POP DUP2 DUP2 SUB PUSH1 0x80 DUP4 ADD MSTORE PUSH2 0x83F DUP2 DUP7 PUSH2 0x788 JUMP JUMPDEST SWAP1 POP PUSH2 0x84E PUSH1 0xA0 DUP4 ADD DUP6 PUSH2 0x663 JUMP JUMPDEST PUSH2 0x85B PUSH1 0xC0 DUP4 ADD DUP5 PUSH2 0x7CD JUMP JUMPDEST SWAP9 SWAP8 POP POP POP POP POP POP POP POP JUMP JUMPDEST PUSH1 0x0 DUP1 REVERT JUMPDEST PUSH1 0x0 DUP1 REVERT JUMPDEST PUSH1 0x0 DUP1 REVERT JUMPDEST PUSH1 0x0 DUP1 DUP4 PUSH1 0x1F DUP5 ADD SLT PUSH2 0x88C JUMPI PUSH2 0x88B PUSH2 0x867 JUMP JUMPDEST JUMPDEST DUP3 CALLDATALOAD SWAP1 POP PUSH8 0xFFFFFFFFFFFFFFFF DUP2 GT ISZERO PUSH2 0x8A9 JUMPI PUSH2 0x8A8 PUSH2 0x86C JUMP JUMPDEST JUMPDEST PUSH1 0x20 DUP4 ADD SWAP2 POP DUP4 PUSH1 0x1 DUP3 MUL DUP4 ADD GT ISZERO PUSH2 0x8C5 JUMPI PUSH2 0x8C4 PUSH2 0x871 JUMP JUMPDEST JUMPDEST SWAP3 POP SWAP3 SWAP1 POP JUMP JUMPDEST PUSH1 0x0 DUP1 PUSH1 0x0 DUP1 PUSH1 0x0 DUP1 PUSH1 0x0 DUP1 PUSH1 0x80 DUP10 DUP12 SUB SLT ISZERO PUSH2 0x8EC JUMPI PUSH2 0x8EB PUSH2 0x68D JUMP JUMPDEST JUMPDEST PUSH1 0x0 DUP10 ADD CALLDATALOAD PUSH8 0xFFFFFFFFFFFFFFFF DUP2 GT ISZERO PUSH2 0x90A JUMPI PUSH2 0x909 PUSH2 0x692 JUMP JUMPDEST JUMPDEST PUSH2 0x916 DUP12 DUP3 DUP13 ADD PUSH2 0x876 JUMP JUMPDEST SWAP9 POP SWAP9 POP POP PUSH1 0x20 DUP10 ADD CALLDATALOAD PUSH8 0xFFFFFFFFFFFFFFFF DUP2 GT ISZERO PUSH2 0x939 JUMPI PUSH2 0x938 PUSH2 0x692 JUMP JUMPDEST JUMPDEST PUSH2 0x945 DUP12 DUP3 DUP13 ADD PUSH2 0x876 JUMP JUMPDEST SWAP7 POP SWAP7 POP POP PUSH1 0x40 DUP10 ADD CALLDATALOAD PUSH8 0xFFFFFFFFFFFFFFFF DUP2 GT ISZERO PUSH2 0x968 JUMPI PUSH2 0x967 PUSH2 0x692 JUMP JUMPDEST JUMPDEST PUSH2 0x974 DUP12 DUP3 DUP13 ADD PUSH2 0x876 JUMP JUMPDEST SWAP5 POP SWAP5 POP POP PUSH1 0x60 DUP10 ADD CALLDATALOAD PUSH8 0xFFFFFFFFFFFFFFFF DUP2 GT ISZERO PUSH2 0x997 JUMPI PUSH2 0x996 PUSH2 0x692 JUMP JUMPDEST JUMPDEST PUSH2 0x9A3 DUP12 DUP3 DUP13 ADD PUSH2 0x876 JUMP JUMPDEST SWAP3 POP SWAP3 POP POP SWAP3 SWAP6 SWAP9 POP SWAP3 SWAP6 SWAP9 SWAP1 SWAP4 SWAP7 POP JUMP JUMPDEST PUSH32 0x4E487B7100000000000000000000000000000000000000000000000000000000 PUSH1 0x0 MSTORE PUSH1 0x22 PUSH1 0x4 MSTORE PUSH1 0x24 PUSH1 0x0 REVERT JUMPDEST PUSH1 0x0 PUSH1 0x2 DUP3 DIV SWAP1 POP PUSH1 0x1 DUP3 AND DUP1 PUSH2 0x9FC JUMPI PUSH1 0x7F DUP3 AND SWAP2 POP JUMPDEST PUSH1 0x20 DUP3 LT DUP2 SUB PUSH2 0xA0F JUMPI PUSH2 0xA0E PUSH2 0x9B5 JUMP JUMPDEST JUMPDEST POP SWAP2 SWAP1 POP JUMP JUMPDEST PUSH32 0x4E487B7100000000000000000000000000000000000000000000000000000000 PUSH1 0x0 MSTORE PUSH1 0x11 PUSH1 0x4 MSTORE PUSH1 0x24 PUSH1 0x0 REVERT JUMPDEST PUSH1 0x0 PUSH2 0xA4F DUP3 PUSH2 0x659 JUMP JUMPDEST SWAP2 POP PUSH32 0xFFFFFFFFFFFFFFFFFFFFFFFFFFFFFFFFFFFFFFFFFFFFFFFFFFFFFFFFFFFFFFFF DUP3 SUB PUSH2 0xA81 JUMPI PUSH2 0xA80 PUSH2 0xA15 JUMP JUMPDEST JUMPDEST PUSH1 0x1 DUP3 ADD SWAP1 POP SWAP2 SWAP1 POP JUMP JUMPDEST PUSH32 0x4E487B7100000000000000000000000000000000000000000000000000000000 PUSH1 0x0 MSTORE PUSH1 0x41 PUSH1 0x4 MSTORE PUSH1 0x24 PUSH1 0x0 REVERT JUMPDEST PUSH1 0x0 DUP2 SWAP1 POP DUP2 PUSH1 0x0 MSTORE PUSH1 0x20 PUSH1 0x0 KECCAK256 SWAP1 POP SWAP2 SWAP1 POP JUMP JUMPDEST PUSH1 0x0 PUSH1 0x20 PUSH1 0x1F DUP4 ADD DIV SWAP1 POP SWAP2 SWAP1 POP JUMP JUMPDEST PUSH1 0x0 DUP3 DUP3 SHL SWAP1 POP SWAP3 SWAP2 POP POP JUMP JUMPDEST PUSH1 0x0 PUSH1 0x8 DUP4 MUL PUSH2 0xB1D PUSH32 0xFFFFFFFFFFFFFFFFFFFFFFFFFFFFFFFFFFFFFFFFFFFFFFFFFFFFFFFFFFFFFFFF DUP3 PUSH2 0xAE0 JUMP JUMPDEST PUSH2 0xB27 DUP7 DUP4 PUSH2 0xAE0 JUMP JUMPDEST SWAP6 POP DUP1 NOT DUP5 AND SWAP4 POP DUP1 DUP7 AND DUP5 OR SWAP3 POP POP POP SWAP4 SWAP3 POP POP POP JUMP JUMPDEST PUSH1 0x0 DUP2 SWAP1 POP SWAP2 SWAP1 POP JUMP JUMPDEST PUSH1 0x0 PUSH2 0xB64 PUSH2 0xB5F PUSH2 0xB5A DUP5 PUSH2 0x659 JUMP JUMPDEST PUSH2 0xB3F JUMP JUMPDEST PUSH2 0x659 JUMP JUMPDEST SWAP1 POP SWAP2 SWAP1 POP JUMP JUMPDEST PUSH1 0x0 DUP2 SWAP1 POP SWAP2 SWAP1 POP JUMP JUMPDEST PUSH2 0xB7E DUP4 PUSH2 0xB49 JUMP JUMPDEST PUSH2 0xB92 PUSH2 0xB8A DUP3 PUSH2 0xB6B JUMP JUMPDEST DUP5 DUP5 SLOAD PUSH2 0xAED JUMP JUMPDEST DUP3 SSTORE POP POP POP POP JUMP JUMPDEST PUSH1 0x0 SWAP1 JUMP JUMPDEST PUSH2 0xBA7 PUSH2 0xB9A JUMP JUMPDEST PUSH2 0xBB2 DUP2 DUP5 DUP5 PUSH2 0xB75 JUMP JUMPDEST POP POP POP JUMP JUMPDEST JUMPDEST DUP2 DUP2 LT ISZERO PUSH2 0xBD6 JUMPI PUSH2 0xBCB PUSH1 0x0 DUP3 PUSH2 0xB9F JUMP JUMPDEST PUSH1 0x1 DUP2 ADD SWAP1 POP PUSH2 0xBB8 JUMP JUMPDEST POP POP JUMP JUMPDEST PUSH1 0x1F DUP3 GT ISZERO PUSH2 0xC1B JUMPI PUSH2 0xBEC DUP2 PUSH2 0xABB JUMP JUMPDEST PUSH2 0xBF5 DUP5 PUSH2 0xAD0 JUMP JUMPDEST DUP2 ADD PUSH1 0x20 DUP6 LT ISZERO PUSH2 0xC04 JUMPI DUP2 SWAP1 POP JUMPDEST PUSH2 0xC18 PUSH2 0xC10 DUP6 PUSH2 0xAD0 JUMP JUMPDEST DUP4 ADD DUP3 PUSH2 0xBB7 JUMP JUMPDEST POP POP JUMPDEST POP POP POP JUMP JUMPDEST PUSH1 0x0 DUP3 DUP3 SHR SWAP1 POP SWAP3 SWAP2 POP POP JUMP JUMPDEST PUSH1 0x0 PUSH2 0xC3E PUSH1 0x0 NOT DUP5 PUSH1 0x8 MUL PUSH2 0xC20 JUMP JUMPDEST NOT DUP1 DUP4 AND SWAP2 POP POP SWAP3 SWAP2 POP POP JUMP JUMPDEST PUSH1 0x0 PUSH2 0xC57 DUP4 DUP4 PUSH2 0xC2D JUMP JUMPDEST SWAP2 POP DUP3 PUSH1 0x2 MUL DUP3 OR SWAP1 POP SWAP3 SWAP2 POP POP JUMP JUMPDEST PUSH2 0xC70 DUP3 PUSH2 0x731 JUMP JUMPDEST PUSH8 0xFFFFFFFFFFFFFFFF DUP2 GT ISZERO PUSH2 0xC89 JUMPI PUSH2 0xC88 PUSH2 0xA8C JUMP JUMPDEST JUMPDEST PUSH2 0xC93 DUP3 SLOAD PUSH2 0x9E4 JUMP JUMPDEST PUSH2 0xC9E DUP3 DUP3 DUP6 PUSH2 0xBDA JUMP JUMPDEST PUSH1 0x0 PUSH1 0x20 SWAP1 POP PUSH1 0x1F DUP4 GT PUSH1 0x1 DUP2 EQ PUSH2 0xCD1 JUMPI PUSH1 0x0 DUP5 ISZERO PUSH2 0xCBF JUMPI DUP3 DUP8 ADD MLOAD SWAP1 POP JUMPDEST PUSH2 0xCC9 DUP6 DUP3 PUSH2 0xC4B JUMP JUMPDEST DUP7 SSTORE POP PUSH2 0xD31 JUMP JUMPDEST PUSH1 0x1F NOT DUP5 AND PUSH2 0xCDF DUP7 PUSH2 0xABB JUMP JUMPDEST PUSH1 0x0 JUMPDEST DUP3 DUP2 LT ISZERO PUSH2 0xD07 JUMPI DUP5 DUP10 ADD MLOAD DUP3 SSTORE PUSH1 0x1 DUP3 ADD SWAP2 POP PUSH1 0x20 DUP6 ADD SWAP5 POP PUSH1 0x20 DUP2 ADD SWAP1 POP PUSH2 0xCE2 JUMP JUMPDEST DUP7 DUP4 LT ISZERO PUSH2 0xD24 JUMPI DUP5 DUP10 ADD MLOAD PUSH2 0xD20 PUSH1 0x1F DUP10 AND DUP3 PUSH2 0xC2D JUMP JUMPDEST DUP4 SSTORE POP JUMPDEST PUSH1 0x1 PUSH1 0x2 DUP9 MUL ADD DUP9 SSTORE POP POP POP JUMPDEST POP POP POP POP POP POP JUMP INVALID LOG2 PUSH5 0x6970667358 0x22 SLT KECCAK256 0xAF 0x4C 0xB5 PUSH25 0xC629550822644FC388D7DC41A2FACF6918C288CB23131B818B 0xCE PUSH26 0xE564736F6C634300081200330000000000000000000000000000 "
				},
				"gasEstimates": {
					"creation": {
						"codeDepositCost": "687800",
						"executionCost": "27833",
						"totalCost": "715633"
					},
					"external": {
						"addCampaign(string,string,string,string)": "infinite",
						"campaings(uint256)": "infinite",
						"fee()": "2451",
						"nextId()": "2407"
					}
				},
				"methodIdentifiers": {
					"addCampaign(string,string,string,string)": "ec671486",
					"campaings(uint256)": "b2395a14",
					"fee()": "ddca3f43",
					"nextId()": "61b8ce8c"
				}
			},
			"storageLayout": {
				"storage": [
					{
						"astId": 19,
						"contract": "DonateCrypto.sol:DonateCrypto",
						"label": "fee",
						"offset": 0,
						"slot": "0",
						"type": "t_uint256"
					},
					{
						"astId": 22,
						"contract": "DonateCrypto.sol:DonateCrypto",
						"label": "nextId",
						"offset": 0,
						"slot": "1",
						"type": "t_uint256"
					},
					{
						"astId": 27,
						"contract": "DonateCrypto.sol:DonateCrypto",
						"label": "campaings",
						"offset": 0,
						"slot": "2",
						"type": "t_mapping(t_uint256,t_struct(Campaign)16_storage)"
					}
				],
				"types": {
					"t_address": {
						"encoding": "inplace",
						"label": "address",
						"numberOfBytes": "20"
					},
					"t_bool": {
						"encoding": "inplace",
						"label": "bool",
						"numberOfBytes": "1"
					},
					"t_mapping(t_uint256,t_struct(Campaign)16_storage)": {
						"encoding": "mapping",
						"key": "t_uint256",
						"label": "mapping(uint256 => struct Campaign)",
						"numberOfBytes": "32",
						"value": "t_struct(Campaign)16_storage"
					},
					"t_string_storage": {
						"encoding": "bytes",
						"label": "string",
						"numberOfBytes": "32"
					},
					"t_struct(Campaign)16_storage": {
						"encoding": "inplace",
						"label": "struct Campaign",
						"members": [
							{
								"astId": 3,
								"contract": "DonateCrypto.sol:DonateCrypto",
								"label": "author",
								"offset": 0,
								"slot": "0",
								"type": "t_address"
							},
							{
								"astId": 5,
								"contract": "DonateCrypto.sol:DonateCrypto",
								"label": "title",
								"offset": 0,
								"slot": "1",
								"type": "t_string_storage"
							},
							{
								"astId": 7,
								"contract": "DonateCrypto.sol:DonateCrypto",
								"label": "description",
								"offset": 0,
								"slot": "2",
								"type": "t_string_storage"
							},
							{
								"astId": 9,
								"contract": "DonateCrypto.sol:DonateCrypto",
								"label": "videoUrl",
								"offset": 0,
								"slot": "3",
								"type": "t_string_storage"
							},
							{
								"astId": 11,
								"contract": "DonateCrypto.sol:DonateCrypto",
								"label": "imageUrl",
								"offset": 0,
								"slot": "4",
								"type": "t_string_storage"
							},
							{
								"astId": 13,
								"contract": "DonateCrypto.sol:DonateCrypto",
								"label": "balance",
								"offset": 0,
								"slot": "5",
								"type": "t_uint256"
							},
							{
								"astId": 15,
								"contract": "DonateCrypto.sol:DonateCrypto",
								"label": "active",
								"offset": 0,
								"slot": "6",
								"type": "t_bool"
							}
						],
						"numberOfBytes": "224"
					},
					"t_uint256": {
						"encoding": "inplace",
						"label": "uint256",
						"numberOfBytes": "32"
					}
				}
			},
			"userdoc": {
				"kind": "user",
				"methods": {},
				"version": 1
			}
		}
	}
}